:10000000F8FF0020110400008B6100008B610000EC
:100010008B6100008B6100008B6100008B61000030
:100020008B6100008B6100008B6100008B61000020
:100030008B6100008B6100008B6100008B61000010
:100040008B6100008B6100008B6100008B61000000
:10040000FFFFFFFFFFFFFFFFFFFFFFFFFEFFFFFFFD
:1004100062B609F04FF8FEE7DFF800F0110DFF1F9C
:1004200010B440B24109DFF89C29012310F01F04E9
:10043000A34042F8213010BC704700B2002801D51B
:1004400000B2404200B2704780B5DFF87C0901215C
:100450000170DFF8780901210160002002F0D2FC70
:10046000DFF86C190860322002F085FD002002F0F0
:10047000C9FCDFF85C190860322002F07CFD002026
:1004800002F0C0FCDFF848190860322002F073FD6A
:10049000002002F0B7FCDFF838190860322002F0C3
:1004A0006AFD002002F0AEFCDFF8241908604FF46A
:1004B000FA7002F060FD002002F0A4FCDFF81019D1
:1004C0000860DFF8080900210160002002F09AFCB2
:1004D000DFF8FC180860322002F04DFD002002F029
:1004E00091FCDFF8EC180860322002F044FD002097
:1004F00002F088FCDFF8D8180860322002F03BFDDB
:10050000002002F07FFCDFF8C8180860322002F0FB
:1005100032FD002002F076FCDFF8B41808604FF4DA
:10052000FA7002F028FD002002F06CFCDFF8A01841
:10053000086001BD10B5DFF89C08006850F00100AC
:10054000DFF89018086001F083F8DFF88C08007875
:10055000401CDFF884180870DFF880080078401C21
:10056000DFF878180870DFF878080068012840F094
:100570001982DFF854080078002807D1DFF86408F2
:100580000088401CDFF85C18088003E0DFF854089E
:1005900000210180DFF84C08B0F90000B0F5FA5FE7
:1005A00004DDDFF840084FF4FA510180DFF8340829
:1005B000B0F90000B0F5FA7F09D1DFF82C08016826
:1005C000DFF8280802F0EEFCDFF81C180860DFF8FE
:1005D00020080068DFF81C18096802F025FD31D2F8
:1005E000DFF80008B0F90000B0F5FA7F2ADDDFF887
:1005F00008080068DFF8F017096802F015FD10D24E
:10060000DFF8E407006802F021FDDFF8F027DFF8EB
:10061000F03702F053FD02F0C5FDDFF8CC1708609B
:1006200005E0DFF8C407DFF8D01709680160DFF8DC
:10063000C0070168DFF8CC0702F0B4FCDFF8B017A0
:10064000086020E0DFF8A8070068DFF8A81709684D
:1006500002F0F0FD13D8DFF88C07B0F90000B0F518
:10066000FA7F0CDDDFF88807DFF88817096801607A
:10067000DFF87407DFF880170968016003E0DFF82E
:10068000700700210160DFF85807006801280AD1CF
:10069000DFF874070168DFF87407006800F01BFAE0
:1006A000DFF86C170860DFF83007007813280BD1EB
:1006B00000F070FFDFF85C07B0F90010DFF85807B2
:1006C000B0F9000000F057FA01F08EF802F011FCCA
:1006D000042840F0BA80DFF844070068012859D1A7
:1006E000DFF83C074068B0F5E16F53DDDFF81C0729
:1006F0000168DFF8F406006802F054FCDFF8241704
:1007000002F098FD46D8DFF818070068DFF81817E0
:10071000096888423EDADFF808070068DFF8081742
:100720000968884236DADFF8F8060068DFF8F01664
:10073000C968401A00B2FFF780FE64282ADADFF8A1
:10074000EC060068401CDFF8E4160860DFF8DC0601
:1007500000680B2803DBDFF8D80601210160DFF811
:10076000D0060068012819D1DFF8C8060021016011
:10077000DFF8C4060068404202F06EFDDFF868163C
:100780000860DFF8B80600210160DFF840060121AB
:10079000016003E0DFF8940600210160DFF89006B5
:1007A0000068012806D1DFF898060068401CDFF8D1
:1007B00090160860DFF88C060068DFF88416096878
:1007C00088421FDADFF820060068DFF82C16096877
:1007D00002F02AFC10D2DFF81006006802F036FCA6
:1007E000DFF86426DFF8643602F068FC02F0DAFC19
:1007F000DFF8F415086005E0DFF8EC05DFF8F81520
:1008000009680160DFF848060068DFF834160968F7
:1008100088421EDADFF8180600210160DFF82006A2
:1008200000210160DFF8A40500210160DFF8040663
:1008300001210160DFF80406DFF818160160DFF817
:10084000B405DFF81416016003E0DFF8D0050021DD
:100850000160DFF8CC0500683C280DDADFF8C00540
:10086000C0683C2808DADFF8600501210170DFF874
:10087000EC050121017003E0DFF8E00500210170C3
:10088000DFF85805007801280FD1DFF8D405026899
:10089000DFF88005B0F90010DFF87C05B0F9000042
:1008A00000F0F2FADFF8BC150860DFF88805006890
:1008B000012821D1DFF8B0050068DFF8B01509681C
:1008C00002F0E4FC0400DFF81005007802F0CEFC32
:1008D0005FF07E5102F066FB210002F04BFDDFF875
:1008E000901502F0B3FDDFF88415096802F05AFB99
:1008F000DFF88015086003E0DFF87805002101606B
:10090000DFF874050068012821D1DFF85805006878
:10091000DFF8141D096802F0B9FC0400DFF8BC041C
:10092000007802F0A3FC5FF07E5102F03BFB210057
:1009300002F020FD5FF0804102F088FDDFF8E81C46
:10094000096802F02FFBDFF83415086003E0DFF8D8
:100950002C0500210160DFF8B8040168DFF81405F8
:10096000006802F01FFBDFF81415096802F01AFB9B
:1009700002F0EAFDDFF808150860DFF8940401686A
:10098000DFF8F004006802F00DFBDFF8F0140968EE
:1009900002F07CFC02F0D8FDDFF8E814086000F0FB
:1009A00011FE09E0DFF8D8044FF47A710160DFF836
:1009B000D4044FF47A710160DFF81C040078132826
:1009C00003D1DFF8140400210170DFF8100400786F
:1009D000012803D1DFF8040400210170DFF8E803E7
:1009E0000078002819D1DFF8C00A0088B0F5FA6F46
:1009F0000ADADFF8B40A0088401CDFF8AC1A088075
:100A0000DFF8180400210160DFF878040168DFF8DE
:100A10007004006800F06CFD46E0DFF8900A007892
:100A2000012806D1DFF8880A0078401CDFF8801A18
:100A30000870DFF87C0A007800281AD0DFF8700A06
:100A40000078472815DADFF838044FF47A6101603E
:100A5000DFF830044FF47A610160DFF828040168A0
:100A6000DFF81C04006800F043FDE148002101604C
:100A70001AE0DFF80C0400210160DFF8080400210F
:100A80000160DFF800040168DFF8F403006800F09B
:100A90002FFDDFF81C0A00210170DFF8100A002189
:100AA0000170D3480021016010BD80B5DFF8100B44
:100AB000006800280ED1032002F05DFADFF8000B79
:100AC0000068002806D1DFF8E40901210170BE4862
:100AD0000121017001BD2DE9F04104000D00DFF896
:100AE000300B00210160C0480068210002F05AFA72
:100AF000DFF8201B096802F0C9FB0600DFF8180BBD
:100B00000068310002F036FCDFF8101B0860DFF8E7
:100B1000100BDFF8181B09680160DFF8080BB0F94B
:100B2000000002F099FBDFF8041B0860DFF8F40A0C
:100B3000B0F9000002F090FBDFF8E01A096802F05B
:100B400031FADFF8EC1A096802F014FC8046DFF88D
:100B5000D00A0068DFF8D41A096802F097FBDFF8C2
:100B6000341C096802F006FC414602F01BFA07003B
:100B70003800BDE8F08170B504000D00BB48BA49EB
:100B800009680160A448B0F90000A249B1F9001059
:100B90000818022190FBF1F002F05EFB944909680D
:100BA00002F074FBDFF88C1A086087480078002890
:100BB00010D1DFF8840A00689749B1F90010954A0E
:100BC000B2F900205118022291FBF2F10818DFF867
:100BD000681A08607C48007800280ED1DFF85C0AAB
:100BE000006802F039FBDFF84C1A096802F0DAF904
:100BF00002F0AAFCDFF8441A0860DFF8400A006837
:100C000042F23511884204DBDFF8300A42F2341137
:100C10000160DFF8280A0068DFF8241A884204DA45
:100C2000DFF8180ADFF8181A0160DFF8180A0168FF
:100C300091F00041DFF8FC09006802F09BFB060020
:100C4000DFF8F809006802F007FBDFF8FC19096813
:100C500091F0004102F08EFB310002F0A3F9060092
:100C60006D48B0F900006B49B1F900100818022175
:100C700090FBF1F002F0F0FA5E49096802F006FB21
:100C8000DFF8141B02F08EF9DFF8C01902F072FBD6
:100C90000100300002F0FAFA734908604A4800780F
:100CA000012803D1DFF8940900210160DFF8EC0A84
:100CB000007801287CD1DFF87C090068DFF8E01AB1
:100CC00002F0B2F910D2DFF86C090168DFF8D40A3B
:100CD00002F068F990F000405849096802F04AFBB8
:100CE000DFF8C41A086003E0DFF8BC0A00210160E5
:100CF0004948B0F900004749B1F90010081802212D
:100D000090FBF1F002F0A8FA01000E0039480168EA
:100D1000DFF8980A02F046F9310002F085F924D292
:100D20003048B0F90000B0F5FA6F1EDD3A48B0F96E
:100D300000003849B1F900100818022190FBF1F0C9
:100D400002F08AFA2B49096802F0A0FADFF8481A83
:100D500002F028F990F00040DFF8541A096802F018
:100D600009FBDFF8501A086003E0DFF8480A0021A9
:100D70000160DFF8C0080068DFF83C1A02F05AFA98
:100D800007D811480078002803D1104801210160DC
:100D900002E00E4800210160DFF80C0A0168DFF86C
:100DA000140A006802F0FEF8DFF86818086007E02F
:100DB000DFF8000A00210160DFF8EC090021016082
:100DC00070BD000000E100E05804FF1F2408FE434E
:100DD000000FFF1F1C7103405014FF1F5114FF1F11
:100DE0007804FF1F4414FF1F5C04FF1F0000C8416C
:100DF0005C0FFF1F6804FF1F6004FF1FE17A14AE41
:100E000047E1AABF00002041380FFF1F340FFF1F2A
:100E1000200FFF1F4814FF1F4614FF1F3804FF1F39
:100E2000840FFF1FFEFF7FC14404FF1FE80EFF1F5A
:100E3000E40EFF1F7C04FF1F4804FF1F5404FF1F24
:100E4000EC0EFF1F3C04FF1F9A9999999999B93F9D
:100E50004004FF1F6F12833A00806D454A14FF1F44
:100E60003C0FFF1F500FFF1F480FFF1F440FFF1FB6
:100E70000000A041240FFF1F8804FF1F280FFF1F41
:100E80002C0FFF1F300FFF1F2DE9F74F82B0DFF847
:100E90002C09DFF82C1909680160DFF828090068BF
:100EA000401CDFF820190860DFF8180900680428E2
:100EB00003D1DFF8100900210160DFF80C09006898
:100EC000DFF80819096802F0E1F9DFF8041902F007
:100ED000ABF816D2DFF8F0080068DFF8F81802F077
:100EE000A3F80ED2DFF8F0080068012804D0DFF87C
:100EF000EC0801210160A3E0DFF8E00800210160B7
:100F00009EE0DFF8C4080068DFF8C018096802F046
:100F1000BDF9DFF8C01802F08DF916D8DFF8AC087B
:100F20000068DFF8B01802F07FF80ED2DFF8AC08E6
:100F30000068012804D0DFF8A008012101607FE0EB
:100F4000DFF89408002101607AE0DFF8800800688B
:100F5000DFF88C1802F06EF930D8DFF86C08006802
:100F6000DFF8701802F066F928D8DFF8600800682A
:100F7000DFF85418096802F057F804D2DFF8640863
:100F80000121016011E0DFF840080068DFF83C183B
:100F9000096802F049F804D2DFF84808022101602C
:100FA00003E0DFF8400800210160DFF8300800218D
:100FB0000160DFF824080021016041E0DFF8080843
:100FC0000068DFF8101802F02FF816D2DFF8F807E3
:100FD0000068DFF8F817096802F058F9DFF8F01731
:100FE00002F028F909D8DFF8FC070068022827D1A9
:100FF000DFF8E8070121016022E0DFF8D007006890
:10100000DFF8DC1702F010F816D2DFF8BC07006832
:10101000DFF8B817096802F039F9DFF8B81702F0FD
:1010200003F809D2DFF8BC070068012808D1DFF80F
:10103000A8070121016003E0DFF8200B0121017006
:10104000DFF894070068012866D1DFF89007006890
:10105000012861D0DFF87007006801F0F7FF020097
:101060000B00DFF8EC0ADFF8EC1A02F08FFA02F05E
:1010700099F881460022DFF8E83A14001D0048463E
:1010800001F0E4FF22002B0002F075FD06000F00C6
:10109000484601F0DBFF04000D00DFF8BC0A0068E1
:1010A00001F0D4FF32003B0002F07EFF06000F008B
:1010B000DFF8B00A006801F0C9FF82468B462000C5
:1010C000290022002B0002F06FFF52465B4602F01F
:1010D0006BFF32003B0001F0F1FF04000D00DFF870
:1010E000880A0068494602F045F901F0AFFF220086
:1010F0002B0001F0E3FF04000D00DFF8700A006828
:1011000001F0A4FF22002B0001F0D8FF02F04AF802
:10111000DFF85C1A0860F5E0DFF8C0060068012817
:1011200066D1DFF8B4060068012861D0DFF89C06BC
:10113000006801F08BFF02000B00DFF8380ADFF8CF
:10114000381A02F023FA02F02DF880460022DFF868
:10115000103A14001D00404601F078FF22002B00D9
:1011600002F009FD06000F00404601F06FFF040089
:101170000D00DFF8080A006801F068FF32003B004C
:1011800002F012FF06000F00DFF8F409006801F01A
:101190005DFF82468B462000290022002B0002F0D2
:1011A00003FF52465B4602F0FFFE32003B0001F0B7
:1011B00085FF04000D00DFF8CC090068414602F00D
:1011C000D9F801F043FF22002B0001F077FF040063
:1011D0000D00DFF8B409006801F038FF22002B0091
:1011E00001F06CFF01F0DEFFDFF88419086089E090
:1011F000DFF8E8050068DFF8E01509680843002813
:101200007CD1DFF8C4050068DFF8C015096802F07A
:101210003DF80400DFF8B0050168DFF8B0050068AC
:1012200001F0C0FE0100200002F010F9DFF85C19A7
:1012300008600022DFF8283914001D00DFF84C098F
:10124000006801F003FF22002B0002F094FC06006E
:101250000F00DFF83809006801F0F8FE04000D0007
:10126000DFF82C09006801F0F1FE32003B0002F0CB
:101270009BFE06000F00DFF81C09006801F0E6FE87
:1012800082468B462000290022002B0002F08CFEB3
:1012900052465B4602F088FE32003B0001F00EFF32
:1012A00004000D00DFF8F0080168DFF8E0080068CE
:1012B00002F060F801F0CAFE22002B0001F0FEFEF1
:1012C00004000D00DFF8D408006801F0BFFE220022
:1012D0002B0001F0F3FE04000D00DFF8C4080068E5
:1012E00001F0B4FE02000B002000290002F04EF9CC
:1012F00001F058FFDFF87818086003E0DFF85C08B9
:1013000001210170DFF89C080078002826D1DFF861
:1013100098080078012821D1DFF8C004006801286E
:101320000ED1DFF8A0040068012804DBDFF87C0898
:101330000121016012E0DFF87408002101600DE076
:10134000DFF894040068012804D1DFF86008012167
:10135000016003E0DFF8540800210160DFF8B808FD
:10136000DFF80C1809680160DFF85404DFF8A818EA
:1013700009680160AC48DFF8581A09680160DFF8B5
:1013800040040068DFF83414096801F07FFF009022
:10139000DFF848040068DFF84014096808430028B3
:1013A00028D1DFF87408006801F050FE06000F0035
:1013B000DFF86808006801F049FE04000D00DFF85E
:1013C0006008006801F042FE82468B46300039001A
:1013D00032003B0002F0E8FD52465B4602F0E4FDBD
:1013E00022002B0001F06AFE01F0DCFEDFF8341869
:1013F000086005E0DFF82C08DFF8201809680160B4
:10140000DFF814080168DFF81C08006801F0B2FF7B
:1014100004000099DFF81008006801F0ABFF21001C
:1014200001F0C0FD0400DFF80408016891F00041FC
:10143000049801F09FFF210001F0B4FDDFF890193E
:101440000860DFF8EC07DFF8D01709680160DFF803
:10145000C8070168D34801F08DFF02F075F8DFF886
:10146000D4170880DFF868090068DFF8CC1701F0AE
:10147000E1FE05D8DFF85809DFF8C01701600CE07D
:10148000DFF84C090068DFF8B81701F0CDFD04D291
:10149000DFF83C09DFF8A8170160DFF834090068BD
:1014A00005B0BDE8F08F00003414FF1F4C14FF1F7F
:1014B0004B14FF1F80B5002344F25062002100202E
:1014C00002F0D0FE002344F250620121002002F01D
:1014D000C9FE002344F250620221002002F0C2FE45
:1014E000002344F250620321002002F0BBFE01BD44
:1014F00038B504000D00012C12DB200000B2FEF70D
:101500009CFF42F2107100B20A1A0021002002F082
:101510006FFF42F210720121002002F069FF11E01A
:1015200042F210720021002002F062FF200000B29F
:10153000FEF783FF42F2107100B20A1A0121002067
:1015400002F056FF012D12DB280000B2FEF775FFF6
:1015500042F2107100B20A1A0221002002F048FF84
:1015600042F210720321002002F042FF11E042F229
:1015700010720221002002F03BFF280000B2FEF7AB
:101580005CFF42F2107100B20A1A0321002002F03F
:101590002FFF31BD80B5012002F0FCFF4042DFF893
:1015A00058180880022002F0F5FFDFF85018088074
:1015B000012003F005F8022003F002F801BD00004D
:1015C0006822FE434FF41650DFF834180968C14210
:1015D00003DADFF82C1842420A60DFF824180968A1
:1015E000884202DADFF818180860DFF8181809686E
:1015F000C14203DADFF80C1842420A60DFF804182F
:101600000968884202DADFF8FC17086070470000BA
:10161000640FFF1F040FFF1F6C04FF1F600FFF1FED
:101620006C0FFF1F3A14FF1F4C0FFF1F680FFF1FA7
:101630007004FF1FB40FFF1F740FFF1FB80FFF1FB1
:10164000CCDEFFFF8004FF1F8404FF1F0000A040CA
:1016500038B502F0D7FF0321282003F010F9DFF896
:10166000A8170880DFF8A0070088DFF8A017B1F9F5
:101670000010401ADFF890170880DFF88C07DFF8B9
:101680008817098801800321292003F0F8F8DFF882
:1016900080170880DFF87807008847F24811401A61
:1016A000DFF86C1708805821012003F06CFC1A3019
:1016B000DFF8601708805A21012003F064FC083825
:1016C000DFF854170880DFF84C07B0F900004042FB
:1016D00001F0C2FDDFF844170860DFF83407B0F905
:1016E000000001F0B9FD01F0B1FC02000B00140094
:1016F0001D00DFF81407B0F9000001F0ADFD01F0A6
:10170000A5FC22002B0003F081FCDFF81427DFF892
:10171000143702F049FC01F045FDDFF80C170860B2
:10172000DFF8F006B0F9000003F0D6FCDFF8202463
:10173000DFF8F83602F038FC01F034FDDFF8F0167F
:101740000860DFF8EC060168DFF8DC06006803F0EB
:10175000DBFCDFF8E006DFF8E01609680160DFF87F
:10176000B806B0F9000001F077FDDFF8D016086088
:10177000DFF8C4060168DFF8C80601F0FBFD01F0E0
:10178000E3FEDFF8C016088002F056FFDFF8681AA3
:10179000086031BD7404FF1F004035454C04FF1F35
:1017A0000000C8C20000C842F80EFF1F004035C547
:1017B0005004FF1FFC0EFF1FFF3F35C5580FFF1FD2
:1017C000540FFF1FF00EFF1FA80FFF1FAC0FFF1FCE
:1017D0008FC2F5BC90C2F53C7C0FFF1F780FFF1F36
:1017E0000BD7A33C800FFF1F30B587B003A80021A3
:1017F000002200230EC00C3800A8DFF84C162CC9BC
:101800002CC00C390C38002004000C2C70DA032199
:101810000D2003F034F8DFF83416086003212E2081
:1018200003F02DF8DFF82416486003210C2003F0A4
:1018300026F8DFF81816C8600398DFF81016096854
:10184000884203DADFF80406006803900498DFF8A2
:10185000FC154968884203DADFF8F0054068049017
:101860000598DFF8E815C968884203DADFF8DC0577
:10187000C0680590DFF8D40500680099884203DA53
:10188000DFF8C80500680090DFF8C00540680199DE
:10189000884203DADFF8B40540680190DFF8AC0550
:1018A000C0680299884203DADFF8A005C068029098
:1018B000DFF89C050068DFF8941509680818DFF860
:1018C00090150860DFF888054068DFF880154968E2
:1018D0000818DFF87C154860DFF87405C068DFF889
:1018E0006C15C9680818DFF86815C860641C8CE7B7
:1018F000DFF85C0500680399401A0099401A01F06E
:10190000ABFC01F0A3FBDFF84C25DFF84C3502F00F
:101910004BFB03F01BFDDFF834150860DFF83005E2
:1019200040680499401A0199401A01F095FC01F0B1
:101930008DFBDFF82025DFF8203502F035FB03F0C2
:1019400005FDDFF808154860DFF80405C068059953
:10195000401A0299401A01F07FFC01F077FBDFF892
:10196000F424DFF8F43402F01FFB03F0EFFCDFF89F
:10197000DC14C860DFF8D80400210160DFF8D0046F
:1019800000214160DFF8C8040021C160DFF86C0865
:101990000068022866D1DFF8B404C068DFF8601878
:1019A000C968401A01F058FC0500DFF85808C06803
:1019B000DFF84C18C968401A01F04EFC01002800FD
:1019C00001F044FDDFF840180860DFF83C080068CB
:1019D000002101F029FB04D8DFF82C08DFF82C18CF
:1019E0000160DFF824080068DFF8241801F022FC09
:1019F00004D8DFF814085FF07E510160DFF84C0472
:101A00000068DFF8FC170968401A01F025FC0500A2
:101A1000DFF8F0070068DFF8E8170968401A01F0FE
:101A20001BFC0100280001F011FDDFF8E817086039
:101A3000DFF8E0070068002101F0F6FA04D8DFF8CB
:101A4000D407DFF8C8170160DFF8C8070068DFF8BF
:101A5000C01701F0EFFB70D8DFF8B8075FF07E51D8
:101A600001606AE0DFF894070068032865D1DFF8B9
:101A7000DC030068DFF888170968401A01F0ECFB06
:101A80000500DFF880070068DFF874170968401A5E
:101A900001F0E2FB0100280001F0D8FCDFF8681734
:101AA0000860DFF864070068002101F0BDFA04D87F
:101AB000DFF85407DFF854170160DFF84C070068BF
:101AC000DFF84C1701F0B6FB04D8DFF83C075FF0F5
:101AD0007E510160DFF87403C068DFF82417C9681D
:101AE000401A01F0B9FB0500DFF81807C068DFF8FD
:101AF0001017C968401A01F0AFFB0100280001F07F
:101B0000A5FCDFF810170860DFF80807006800215F
:101B100001F08AFA04D8DFF8FC06DFF8F01601605D
:101B2000DFF8F0060068DFF8E81601F083FB04D860
:101B3000DFF8E0065FF07E510160DFF810034068D7
:101B400001F08AFBDFF8D016086007B030BD000056
:101B5000EC51B81E85EBF13FE004FF1F4F14FF1F4F
:101B600000000840E404FF1FE804FF1FEC04FF1F0F
:101B7000C40FFF1F54E3A59BC420F23FD004FF1FF6
:101B8000D404FF1FD804FF1FDC04FF1FC80FFF1F72
:101B9000C004FF1FC404FF1FC804FF1FCC04FF1FA5
:101BA0009C04FF1F4A14FF1F4E14FF1F2408FE430E
:101BB0002DE9F04182B005000E0017009846089C00
:101BC000002F13D5E4B200944346DBB27A423100D1
:101BD000C9B22800C0B203F00DFD7EA23100C9B227
:101BE000B5F10A00C0B203F066FD12E0E4B2009461
:101BF0004346DBB23A003100C9B22800C0B203F05C
:101C0000F9FC75A23100C9B2B5F10A00C0B203F007
:101C100052FDBDE8F3810000C00FFF1F8C04FF1FC1
:101C20009004FF1F700FFF1F9404FF1F9804FF1FF5
:101C3000A40FFF1F4014FF1F016006460060064608
:101C4000006006C680B503F011FCDFF8D0050088FF
:101C50003C281EDADFF8C8250021002003F02BFD08
:101C6000DFF8C0250A21002003F025FDDFF8B825A4
:101C70001421002003F01FFDDFF8B0251E210020F5
:101C800003F019FDDFF8A8252821002003F013FD3B
:101C90009BE0DFF888050088782817DADFF89425BC
:101CA0000021002003F007FDDFF88C250A21002029
:101CB00003F001FDDFF884251421002003F0FBFC74
:101CC00046A21E21002003F0F6FC7EE0DFF84C0562
:101CD0000088B4281ADADFF868250021002003F014
:101CE000EAFC3FA20A21002003F0E5FC3DA21421FA
:101CF000002003F0E0FC3CA21E21002003F0DBFCEE
:101D00003AA22821002003F0D6FC5EE0DFF80C05A3
:101D10000088F0281CDADFF82C250021002003F0D1
:101D2000CAFC33A20A21002003F0C5FC31A2142111
:101D3000002003F0C0FCDFF810251E21002003F076
:101D4000BAFCDFF808252821002003F0B4FC3CE0B1
:101D5000DFF8C8040088B0F5967F12DADFF8F024C7
:101D60000021002003F0A7FCDFF8E8240A2100206E
:101D700003F0A1FCDFF8E0241421002003F09BFC19
:101D800023E0DFF898040088B0F5B47F1DDADFF8AF
:101D9000CC240021002003F08EFCDFF8C4240A21AB
:101DA000002003F088FCDFF8BC241421002003F09D
:101DB00082FCDFF8B4241E21002003F07CFCDFF855
:101DC000AC242821002003F076FC03F0EBFA01BDDF
:101DD000BC0FFF1F2D0000002B000000425F4400DD
:101DE000565F5000565F4900505354005043540012
:101DF000545F5000545F44004614FF1F4814FF1FF7
:101E00002C0FFF1F300FFF1F3614FF1F6404FF1F2E
:101E10003814FF1F3A14FF1F3C14FF1F380FFF1F19
:101E2000E3A9471ADCA54C40180FFF1F85EBB13F13
:101E30001C0FFF1F340FFF1FA80EFF1F3C0FFF1FBB
:101E4000000096433E14FF1FB8980000840FFF1F48
:101E5000940FFF1F7B14AE47E17A743F10B582B038
:101E6000DFF80C0400210160DFF8B00300883C2893
:101E700049DAD9A2DFF8A4030188C9B2782003F0B7
:101E80001AFC0C20009004231C00DFF8E803006813
:101E900001F05AFB0200230000215520FFF788FEC5
:101EA0000C2000900423DFF8D00302680A2155209B
:101EB000FFF77EFE0C2000900423DFF8C0030278B9
:101EC00014215520FFF774FE0C2000900423DFF846
:101ED000B00302781E215520FFF76AFE0C20009007
:101EE00004231C00DFF89C030068DFF89C130968DA
:101EF00001F058F801F028FB0200230028215520AA
:101F0000FFF756FE6FE1C548008878284BDAB2A289
:101F1000C2480088B0F13C01C9B2782003F0CBFB85
:101F20000C2000900423D94802680021552003F0BA
:101F300061FB0C20009004231C00D548006801F0D0
:101F400003FB020023000A215520FFF731FE0C207D
:101F5000009004231C00CF480068CF4901F00AFA22
:101F600001F0F2FA0200230014215520FFF720FEB1
:101F70000C20009004231C00C8480068C64901F0EA
:101F8000F9F901F0E1FA020023001E215520FFF7C4
:101F90000FFE0C2000900623C148026828210A2069
:101FA000FFF706FE1FE19D480088B42846DA8AA2A2
:101FB0009A480088B0F17801C9B2782003F07BFB21
:101FC0000C2000900423B74802680021552003F03C
:101FD00011FB0C20009004231C00B3480068AE499C
:101FE00001F0C8F901F0B0FA020023000A215520DF
:101FF000FFF7DEFD0C20009004231C00AB480068B6
:10200000AB4901F0B7F901F09FFA02002300142157
:102010005520FFF7CDFD0C2000900423A548026851
:102020001E215520FFF7C4FD0C2000900423A24878
:10203000026828215520FFF7BBFDD4E077480088CF
:10204000F02850DA64A27548008810F14C01C9B23A
:10205000782003F030FB0C2000900423974802689E
:102060000021552003F0C6FA0C20009004231C0028
:102070009348006801F068FA020023000A21552005
:10208000FFF796FD0C20009005231C008D4800688A
:1020900001F05AFA0200230014215520FFF788FDB1
:1020A0000C20009004231C00874800687A4901F046
:1020B00061F901F049FA020023001E215520FFF7C3
:1020C00077FD0C20009004231C00804800687249B2
:1020D00001F050F901F038FA0200230028215520C0
:1020E000FFF766FD7FE04D480088B0F5967F2CDA5B
:1020F00039A24A48008810F11001C9B2782003F0D3
:10210000DAFA0C20009004231C00DFF85C0B006856
:1021100001F01AFA0200230000215520FFF748FDC4
:102120000C2000900423DFF8440B02680A2155209C
:10213000FFF73EFD0C2000900423DFF8340B02680B
:1021400014215520FFF734FD4DE034480088B0F5E8
:10215000B47F48DA20A231480088B0F12C01C9B21E
:10216000782003F0A8FA0C20009004231C00DFF86C
:10217000040B006801F0E8F902002300002155205B
:10218000FFF716FD0C2000900423DFF8EC0A02682C
:102190000A215520FFF70CFD0C2000900423DFF8E6
:1021A000D80AC26814215520FFF702FD0C200090C8
:1021B00004231C00DFF8C40A006801F0C5F902001E
:1021C00023001E215520FFF7F3FC0C200090042370
:1021D000DFF8A40A02E000BF2A00000042682821BC
:1021E0005520FFF7E5FCDFF8982A3221002003F0A4
:1021F00062FA03F0D7F813BDF40EFF1F0C0FFF1F98
:10220000A004FF1FB004FF1FA80FFF1FFFEB2F2D1F
:102210000100803FAC0FFF1FB00FFF1F4214FF1FD4
:1022200060990000C498000068990000709900004F
:1022300078990000D09800008099000088990000EB
:10224000DC980000E8980000909900009899000040
:10225000F4980000009900000C990000A09900007B
:102260001899000024990000309900003C99000062
:10227000400FFF1F6804FF1F3804FF1F4E14FF1F8D
:102280004C04FF1F340FFF1F5C04FF1F7804FF1F67
:102290006C04FF1F7004FF1F000020417404FF1F27
:1022A000740FFF1F7C04FF1F8004FF1F8404FF1FA7
:1022B0000000C8423C04FF1F4004FF1F8804FF1FAA
:1022C0008C04FF1F9404FF1F9804FF1F9004FF1F3E
:1022D00080B5012200219A2003F0A4FA03219A205C
:1022E00003F056FB00220121292003F09BFA032171
:1022F000292003F04DFBDFF88C09012101605FF418
:10230000E131042003F07AFB282002F0B1F9292002
:1023100002F0AEF90D2002F0ABF92E2002F0A8F980
:102320000C2002F0A5F9FEF777F802F011FE03F099
:10233000E6F9DFF8500900210160C82000F01BFE1B
:1023400003F086F8FFF77EFC012002F0A0F80220DF
:1023500002F09DF8FFF7AEF800F0F8FCDFF828096E
:102360000068052101FB00F1012003F06DFCDFF89E
:102370001C19552003F0B7FC00F0ABFDDFF8101975
:10238000086000F0AEFDDFF80C19086000F0B1FD48
:10239000DFF80419086000F0B4FDDFF800190860E8
:1023A00000F097FD002801D103F07DFD4520FEF7E8
:1023B00037F8DFF8EC08DFF8B01809680160DFF8DB
:1023C000E4080078012801D1FEF73EF8002000F073
:1023D00019FDDFF8D4180860DFF8D0080088B0F5E0
:1023E000FA6F09DB00F08DFD062805D1FEF75DFBD5
:1023F000DFF8BC0801210160DFF8AC0800680028A4
:1024000000F02584DFF8A008006801280FD0C0F094
:102410002184032800F0178220D3052800F04C8285
:10242000C0F02882062800F0FC8300F013BCDFF81F
:1024300084080088B0F5AA7F04DDDFF87808002161
:10244000018006E0DFF86C0800880A30DFF86418C5
:102450000880FFF7F7FBFFF701FDFBE3DFF8540807
:10246000008800280AD1DFF850080168DFF84C081E
:1024700000F098FDDFF840180860DFE1DFF834086D
:1024800000880A280CD1DFF828080068002801D14C
:10249000012000E00020DFF81818C0B20860CDE18C
:1024A000DFF81008008814280BD1DFF81408007832
:1024B000002801D1012000E00020DFF80418087096
:1024C000BCE1DFF8F00700881E280BD1DFF8F40725
:1024D0000078002801D1012000E00020DFF8E41797
:1024E0000870ABE1DFF8CC070088282800F0A6814F
:1024F000DFF8C0070088322802D103F013FC9DE109
:10250000DFF8B00700883C280CD1DFF8BC07006872
:10251000002801D1012000E00020DFF8AC17C0B294
:1025200008608BE1DFF88C07008846280AD1DFF8C5
:102530009C070168DFF8840700F034FDDFF88C1792
:1025400008607BE1DFF86C070088502810D1DFF8C5
:102550008007006800F07AFDDFF87827DFF8783729
:1025600000F0ACFD00F01EFEDFF86417086065E1C6
:10257000DFF8400700885A2810D1DFF860070068AC
:1025800000F064FDDFF84C27DFF84C3700F096FDD3
:1025900000F008FEDFF8441708604FE1DFF8140789
:1025A0000088642800F04A81DFF8080700886E2858
:1025B00002D103F0B7FB41E1DFF8F8060088782884
:1025C0000CD1DFF81C070068002801D1012000E0D1
:1025D0000020DFF80C17C0B208602FE1DFF8D40646
:1025E0000088822810D1DFF8FC06006800F02EFD7C
:1025F000DFF8E026DFF8E03600F060FD00F0D2FD05
:10260000DFF8E016086019E1DFF8A80600888C28DA
:1026100010D1DFF8D406006800F018FDDFF8CC26F2
:10262000DFF8CC3600F04AFD00F0BCFDDFF8B8164C
:10263000086003E1DFF87C060088962807D1DFF800
:10264000B4060068401EDFF8AC160860F6E0DFF85C
:1026500064060088A02807D1DFF89C060068401EA9
:10266000DFF894160860E9E0DFF848060088AA2839
:1026700002D103F057FBE1E0DFF838060088B42808
:102680000CD1DFF878060068002801D1012000E0B5
:102690000020DFF86816C0B20860CFE0DFF814064B
:1026A0000088BE280AD1DFF858060168DFF8540612
:1026B00000F078FCDFF848160860BFE0DFF8F405AA
:1026C0000088C8280AD1DFF840060168DFF83C0618
:1026D00000F068FCDFF830160860AFE0DFF8D405E2
:1026E0000088D22810D1DFF82806006800F0AEFC80
:1026F000DFF8E025DFF8E03500F0E0FC00F052FD07
:10270000DFF80C16086099E0DFF8A8050088DC28DF
:1027100010D1DFF80006006800F098FCDFF8B4255F
:10272000DFF8B43500F0CAFC00F03CFDDFF8E4153A
:10273000086083E0DFF87C050088E62802D103F01A
:10274000F1FA7BE0DFF86C050088F0280FD1DFF8A4
:102750001805006800F07AFC0022DFF8BC3500F0B4
:10276000ADFC00F01FFDDFF80015086066E0DFF843
:1027700044050088FA2807D1DFF8F00400683238F1
:10278000DFF8E814086059E0DFF828050088B0F5A4
:10279000827F07D1DFF8D8040068401EDFF8D0142C
:1027A00008604BE0DFF80C050088B0F5877F45D066
:1027B000DFF800050088B0F58C7F3FD0DFF8F40427
:1027C0000088B0F5917F02D103F0ACFA36E0DFF873
:1027D000E4040088B0F5967F10D1DFF89804006813
:1027E00000F034FCDFF8EC24DFF8EC3400F066FC99
:1027F00000F0D8FCDFF87C1408601FE0DFF8B404B8
:102800000088B0F59B7F19D0DFF8A8040088B0F5E8
:10281000A07F13D0DFF89C040088B0F5A57F0DD011
:10282000DFF890040088B0F5AA7F07D0DFF88404B1
:102830000088B0F5AF7F01D103F074FAFFF702FA18
:10284000FFF70CFB06E2DFF86C040088002805D1D6
:10285000DFF860044FF4AF71018006E0DFF8540444
:1028600000880A38DFF84C140880FFF7EBF9FFF70F
:10287000F5FAEFE1DFF82C0400210170DFF89C0489
:1028800000210170DFF8240400210180DFF89004AA
:1028900001210160DFF88C0400210170DFF8880459
:1028A0000078002801D1012000E00020DFF8781432
:1028B0000870FFF7C7F9CDE1DFF8F80300880028BA
:1028C00010D1DFF8F403006800F0C0FBDFF85C24EF
:1028D000DFF85C3400F0F2FB00F064FCDFF8D813A2
:1028E000086099E1DFF8CC0300880A280CD1DFF8F2
:1028F000C0030068002801D1012000E00020DFF8BB
:10290000B013C0B2086087E1DFF8A803008814287C
:102910000BD1DFF8AC030078002801D1012000E0E2
:102920000020DFF89C13087076E1DFF88803008848
:102930001E280BD1DFF88C030078002801D101207C
:1029400000E00020DFF87C13087065E1DFF8640325
:102950000088282800F06081DFF8580300883228BA
:1029600002D103F0DFF957E1DFF8480300883C2883
:102970000CD1DFF854030068002801D1012000E0E9
:102980000020DFF84413C0B2086045E1DFF82403FB
:10299000008846280AD1DFF834030168DFF8940381
:1029A00000F000FBDFF82413086035E1DFF80403D2
:1029B0000088502810D1DFF81803006800F046FBAB
:1029C000DFF81023DFF8703300F078FB00F0EAFB4B
:1029D000DFF8FC1208601FE1B64800885A280ED1C3
:1029E000DFF8F802006800F031FBBA4ADFF848333C
:1029F00000F064FB00F0D6FBB84908600CE1AD487C
:102A00000088642800F00881AA4800886E2802D156
:102A100003F088F900E1A748008878280AD1B04877
:102A20000068002801D1012000E00020AC49C0B2BC
:102A30000860F1E09F48008882280CD1A94800680E
:102A400000F004FBA34ABC4B00F038FB00F0AAFBEB
:102A5000A4490860E0E0974800888C280CD1A2487F
:102A6000006800F0F3FAA14AB44B00F027FB00F035
:102A700099FB9D490860CFE08E480088962805D1D3
:102A80009C480068401C9B490860C5E08948008854
:102A9000A02805D198480068401C97490860BBE011
:102AA00084480088AA2802D103F03CF9B4E08148A8
:102AB0000088B4280AD191480068002801D101207B
:102AC00000E000208D49C0B20860A5E07948008888
:102AD000BE2807D18A480168994800F063FA8849FE
:102AE000086099E073480088C82807D186480168C3
:102AF000944800F057FA844908608DE06D480088DA
:102B0000D2280CD18248006800F0A0FA714A8A4BA2
:102B100000F0D4FA00F046FB7D4908607CE065488F
:102B20000088DC280CD17B48006800F08FFA694AE5
:102B3000814B00F0C3FA00F035FB764908606BE08A
:102B40005C480088E62802D103F0ECF864E05948BC
:102B50000088F0280CD14448006800F077FA002281
:102B6000794B00F0ABFA00F01DFB3F49086053E0E1
:102B700050480088FA2805D13C48006832303B496B
:102B8000086049E04B480088B0F5827F05D138489D
:102B90000068401C364908603EE046480088B0F5B1
:102BA000877F39D043480088B0F58C7F34D04148C6
:102BB0000088B0F5917F02D103F0B4F82CE03D48D5
:102BC0000088B0F5967F0CD12A48006800F03EFAE4
:102BD000404A414B00F072FA00F0E4FA25490860DF
:102BE0001AE034480088B0F59B7F15D03148008842
:102BF000B0F5A07F10D02F480088B0F5A57F0BD08E
:102C00002C480088B0F5AA7F06D02A480088B0F585
:102C1000AF7F01D103F086F8FFF714F8FFF71EF934
:102C200018E024480088B0F5967F06DB214800882C
:102C3000B0F596701F49088004E01E4800883C30BB
:102C40001C490880FEF7FEFFFFF708F902E00520A7
:102C500000F091F93448007801287FF4B0ABFFF719
:102C6000FDF8FFF7ACBB00006004FF1F4404FF1F2A
:102C70004804FF1F9C04FF1F840FFF1FA40FFF1FAA
:102C8000489900002408FE43E013FF1F35050000AB
:102C9000080FFF1F0C0FFF1F100FFF1F140FFF1F48
:102CA0005C04FF1F4F14FF1F000FFF1F3414FF1F92
:102CB0003804FF1F4214FF1F6804FF1F000048C2B2
:102CC0004E14FF1F4C04FF1F7804FF1F6C04FF1FEE
:102CD0007004FF1F9A9999999999B9BF7404FF1FBD
:102CE0007C04FF1F8004FF1F8404FF1F7B14AE477A
:102CF000E17A84BF3C04FF1F4004FF1F8804FF1FCC
:102D00008C04FF1F000020C19404FF1F0000C8C2F4
:102D10009804FF1F9004FF1F0000E0BF4D14FF1F29
:102D20004400FE434C14FF1F5804FF1F645DDC4643
:102D3000030049400000A0409999B93FE17A843FDF
:102D4000000020410000C8420000E03F80B50022A2
:102D50000021302002F066FD0321302002F018FE31
:102D600000220021312002F05DFD0321312002F01C
:102D70000FFE00220021342002F054FD03213420F4
:102D800002F006FE00220021352002F04BFD032157
:102D9000352002F0FDFD00220021362002F042FD28
:102DA0000321362002F0F4FD00220021372002F03A
:102DB00039FD0321372002F0EBFD00220021102015
:102DC00002F030FD0321102002F0E2FD002200217C
:102DD000112002F027FD0321112002F0D9FD00226D
:102DE00000210F2002F01EFD03210F2002F0D0FD74
:102DF000002200210E2002F015FD03210E2002F01A
:102E0000C7FD01BD0100C9B2002902D0414801221D
:102E100002704048007800283ED03F4800680028F3
:102E200013D03E48006800280FD03D4800680028B5
:102E30000BD03C480068002807D03B4800680028B9
:102E400003D03A480068002826D132480022027098
:102E500031480068002801D1012039E02F4800687E
:102E6000002801D1022033E02D480068002801D15C
:102E700003202DE02B480068002801D1042027E022
:102E800029480068002801D1052021E02748006872
:102E900000281CD106201BE01F480068012816D11D
:102EA0001E480068012812D11D48006801280ED173
:102EB0001C48006801280AD11B480068012806D177
:102EC0001A480068012802D112480122027000202D
:102ED000704717480068002801D1002000E0012059
:102EE000704714480068002801D1022000E0032048
:102EF000704711480068002801D1042000E0052037
:102F000070470E480068002801D1062000E0072025
:102F1000704700003404FF1F440AFE43400AFE438A
:102F2000500AFE43580AFE435C0AFE43540AFE431D
:102F30004402FE434002FE433802FE433C02FE438D
:102F400010B50400002C15D0B4F1807F03D32921E3
:102F50000F4803F0B0F80F48002101600E480460EC
:102F60000E48002101600B480521016009480068F6
:102F7000C003FBD510BD10B504002000441E00287E
:102F800004D007480068FFF7DBFFF6E710BD00003C
:102F90002496000010E000E014E000E018E000E0FB
:102FA000D813FF1F90EA010F44BF81F0004100F0E9
:102FB00075B900BF421A3CBF801A89184FF0004C07
:102FC000C0F3C752FF2A24D0C1F3C75313B3D21A98
:102FD000D2F1190327DD4CEA01214CFA03F321EA6F
:102FE0000303D140C20D4CEA0020401834BF20EA50
:102FF0000C004CEA5000D20553EA006373EB0C0C52
:1030000052EB1020420012F1807F38BF7047C00D94
:10301000C0057047490212BF9A4200EB5120F8E701
:10302000D2F11703D9D570474FF0807C1CEB400FCD
:1030300094BF1CEB410F05E040EA010C5FEA4C0C29
:1030400001D28842704718BF814270475FF0FF0C81
:103050001CEAD05114BF614506E0C110400721F0C1
:10306000E04101F16051704779B900F00041000280
:103070000AD0B0FA80FC00FA0CF001F16051A1EB2B
:103080000C5101EBD0214005704741020CBF40F4C8
:10309000E0016FF000010020704750F8041B61B19F
:1030A00050F8042BD30744BFA9F101039A18002359
:1030B00042F8043B091FFAD1EFE7704770B44FF0B4
:1030C000004591EA030C44BF6B4000F069BA00BFB1
:1030D000841A71EB030603D2001BB141121973412C
:1030E0004FF4001C1CEB410F34BF7CEB430443E066
:1030F0000C0DA4EB1356352E50DC45EAC323DB0A36
:1031000045EAC121C912B6F120050DDD63FA05F6C5
:10311000EB4086EA0305124218BF45F00105C018CE
:1031200051F100010CD213E062FA06F5F24055406D
:10313000F3415A40B340F3405A408018594107D3F5
:1031400049085FEA30005FEA350528BF45F0010510
:1031500001F58011420875F1004250F1000041EB89
:10316000045170BC4FF4001C1CEB410F38BF70477A
:103170000020090D090570471CEB410F10D252EADF
:1031800043060BD0BCEB410F05D80C0DAB43661EBC
:10319000342EB5DD02E0AB438018594170BC704756
:1031A00070BC70474FEAF17CBCF1E04C2CBFBCF521
:1031B000001F11E05FEA4C0C34BFBCF17F5F2EE0D2
:1031C0005FEA9C0C4FEA0C1C4FEA3C0CC10071F109
:1031D00000414CEB50707047C90241EA5051C002A7
:1031E00018BF41F0010141F000414FEA6C50C0F1BD
:1031F0000900212810D240EACC7CCCF1200C11FA35
:103200000CF070F10040CCF1200C21FA0CF00CF025
:10321000004C40EB0C0070474FEACC7070474900FF
:1032200011F5001F04D84FEACC10FF30C0057047DD
:10323000C81770474FF0807C1CEB400F94BF1CEB0D
:10324000410F05E040EA010C5FEA4C0C01D28142DB
:10325000704718BF88427047002840F10980F44643
:10326000404200F005F850F000406047002800BFE1
:103270000AD0B0FA80F18840D1F19D01C90502065B
:1032800072F1004241EB10207047000090EA010FFC
:1032900044BF81F00041FFF78DBE00BF431A4FF0DD
:1032A00000423EBF5340C01AC91800BFD3095FEAAD
:1032B000D05C13EB400F34BFB3EB410F40E07CEB2D
:1032C000D1530CD342EA012122D8D1EB402009D3BB
:1032D000400A28BF5FEA500140EBCC507047401ACB
:1032E00015D04002B0FA80F2521C9040400A4FEADA
:1032F0003C23B3EB026384BF00EB730007E040F4B0
:1033000000001A16DB07C2F10102D04018437047D3
:10331000182BFCDC31FA03F202FA03F3591A38BF16
:1033200042F00102D2EB40203CBF4000ACF1010C66
:103330005FEACC5CC20572F100414CEB5020704753
:1033400013EB400F0FD24B0009D0ACEBD153022B43
:1033500003DB4902172BDDDD70479143401A430020
:10336000D5D10020704713EB410FD0D36FF0000090
:1033700070470000FF2212EAD05C1DBF12EAD15351
:10338000944593422BE09C44D30780EA01021A4003
:1033900043EA002043EA0121A1FB0030410038BF8D
:1033A00040007CF17F010BDBFE294ADA5B0842EA30
:1033B000C15153EA006373F1004C51EB1020704788
:1033C000D1F1080CDCF120012FDB5B0810FA01F1D0
:1033D0000B4373F1004120FA0CF0504170479445C3
:1033E0001CBF02EAD153934280EA010202F000427C
:1033F0001DD0400019D0490017D05BB9634514D0E7
:103400000902B1FA81F39940BCEB030CC00140F012
:103410000040C1E70002B0FA80FC10FA0CF0B3EBF8
:103420000C0CC90141F00041B6E7100070474000A4
:103430000AD0490008D010F1807F94BF11F1807F3D
:1034400002E042F0FF407047D043704710B5FF23C1
:1034500013EAD0541DBF13EAD1529C429A4239E07C
:10346000A41ADA0780EA0103134042EA012142EA82
:103470000020421A3CBF641E01EB4202090AB2FB63
:10348000F1FE01FB1E221202B2FBF1F001FB102241
:103490006EF30F201202B2FBF1FE4EEA00207F34E1
:1034A00006DDFE2C24DA53EA500050EBC45010BD68
:1034B000D4F1020401FB1E2240F08071192C1DDCA6
:1034C00021FA04F0C4F12004A140114371F100423B
:1034D000584110BD9C421ABF03EAD1529A420FE0F4
:1034E00080EA010E0EF00043400004D0490016D1DE
:1034F00043F0FF4010BD490008BFD343180010BD82
:103500009C4205D1D21AF7D001F00041484010BDCD
:103510004A0212BF0846484000F0004010BD4AB9B8
:103520000902B1FA81F2914044B1A418C00140F0FF
:1035300000409EE7C90141F0004152420002B0FA4A
:1035400080F4A040141B94E74100090E7F3915D484
:10355000D1F11F0114D4400007D2C00140F0004057
:10356000C84048BF6FF000407047C00140F00040C5
:10357000C8404CBF4FF000404042704700207047A9
:1035800000424FF0004058BFC043704770B44FF046
:10359000004591EA030F44BF6B40FFF799BD00BFA0
:1035A000841A71EB030604D26E40001BB14112195C
:1035B00073414FF4001C1CEB410F34BF7CEB4306FE
:1035C00084E00C0DA4EB1356362E7DDC012E43DC7B
:1035D00045EAC32343EA525312BFD20292025B0868
:1035E000240545EAC12141EA5051D2EBC02099415E
:1035F00025D407D1B0FA80F610FA06F164D0002085
:10360000203608E0B1FA81F6B140C6F1200220FA76
:1036100002F21143B0404FEAF474B4EB465434F074
:1036200001064FEA74040AD8D6F50016760D04F0A8
:103630000044F04061FA06F25040F1404840C00AB0
:1036400040EA415021F0004128BF5FEA500550F1A7
:10365000000044EBD12137E045EAC323DB0A45EA09
:10366000C121C90AB6F120050EDD42EA0242120C60
:10367000C5F1200603FA06F6EB4042EA06056D4264
:10368000984161F100010DE062FA06F5F240554003
:1036900063FA06FC82EA0C02F3405A406D42904104
:1036A00061EB030111F4801F05D1641E620502D095
:1036B0006D004041494121F48011430875F10043F8
:1036C00050F1000041EB045170BC70471CEB410FFE
:1036D00015D223F0004352EA43060BD04FEA4C0CBC
:1036E000BCEB410F04D80C0D661E342EB7DDEBE7A2
:1036F000801A994150EA410608BF0021E4E708BF5B
:103700001CEB430F28BF6FF00001DDE7443A5C4536
:103710005341545C667265657363616C655C626598
:1037200067696E5C4E45575F362E3330D6D8D0B4BD
:103730005C436869705C7372635C4D4B36305F61EB
:1037400064632E63000000002DE9F8490FB48AB0CD
:10375000DDE90C01CDE904010B98C0F30A5040F2F9
:10376000FF7188420AD10020ADF800000B980003D9
:1037700005BF0A9800280225012516E0012809DA6C
:103780000AA802F02BFD012804DB0020ADF80000A0
:1037900000250AE00B9A40F2FE3161F31E52401AF6
:1037A0000B92ADF800004FF0FF35002104A802F0A5
:1037B00036FD0646169808B10021018036B9DDE9CC
:1037C0000C230020002102F069FD12D0002D12D53B
:1037D000BDF90040012C13D1DDE90A230020CB49BB
:1037E00002F05CFD05D0012E0AD1C94902F056FD58
:1037F0002ED1C849BCE1022D04D1DDE90A01B7E1AF
:10380000012E5ADB022E08BFDDE90C0100F0B08169
:10381000012D1BD10B9800280D9802D4002849D502
:1038200033E0002809D4002E44D14FF0FF3104A822
:1038300002F0F5FC00283DD539E036BB4FF0FF31F2
:1038400004A802F0ECFC00281FD51AE0012E0AD1D2
:103850000D98BDF90040002802D4012C2ADA14E0AA
:10386000012C12DA26E00D98002811D46EB94FF021
:10387000FF3104A802F0D3FC002844BF0B980028B5
:1038800003D500204FF0004172E1002000216FE1DC
:1038900002F014FD2221016066B94FF0FF3104A847
:1038A00002F0BDFC002844BF0B98002802D5002080
:1038B00099495DE1002099495AE10B98002848BFD9
:1038C000002E08D502F0FAFC212101604FF0FF30F4
:1038D0006FF000414CE1DDE90A010022002302F013
:1038E000F3FC38BFADF804200AD381F00041CDE9E4
:1038F0000A014FF0FF3104A802F091FCADF804007A
:10390000012C14D1DDE90A01854A864B02F0F4FC52
:103910000DD2DDE90A2300260027DFF8F8813046C2
:103920004FF0804100F040FBCDE90A011BE0DDE9EA
:103930000A23764D7C49002000F036FB00222B46FE
:10394000FFF7BCFB01F002FDA0F12007384601F0B3
:10395000C3FB0022754B00F027FB00222B46FFF72C
:10396000ADFB064688460FF2202000EB471006907C
:103970003246DDE90A014346FFF708FE07468B465B
:10398000DDE90A0132464346FFF798FB02460B4643
:103990003846594602F0C8FCCDE90801DDE90823A4
:1039A00000F002FBCDE90A7B04460D4602F0E0FD83
:1039B00022462B4600F0F8FADDE90A23FFF7E6FD80
:1039C00004460D460020534932464346FFF7DEFDCC
:1039D00000224FF0804300F0E7FA22462B46FFF723
:1039E0006DFBDDE9082300F0DFFA02460B46DDE956
:1039F0000A01FFF763FB04460D464D4A4D4B02F0AA
:103A000093FCCDE90401BDF9000001F065FB069AC5
:103A100006468846D2E9000132464346FFF74EFB90
:103A2000DDE90423FFF74AFBCDE90401DDE90C23BE
:103A300000F0BAFACDE9020100223F4B02F05CFC33
:103A4000C0F07E8001223D4B02F03EFC7CD900227A
:103A5000002302F051FCDDE9022339BF00202C498C
:103A600000202A49FFF72AFB01F070FC0746DDE938
:103A70000C0122462B4600F097FACDE90201069A86
:103A80002B4C2C4DD2E902019446DCE90423FFF7CC
:103A900015FBDDE90C2300F087FA22462B4600F0E7
:103AA00083FADDE90223FFF709FBCDE90201324683
:103AB000069E4346D6E90001FFF700FBDDE90C2333
:103AC00000F072FA06468846384601F005FB0246C9
:103AD0000B4630464146FFF759FD22462B4600F083
:103AE00063FADDE90223FFF7E9FACDE9020116984E
:103AF00008B10780002700970022064B02A802F0B9
:103B00008DFDE8B101281FD02AE000BF0000E03F92
:103B10000000E0BF0000F03F0000F0FF0000F07F79
:103B2000CD3B7F669EA0E63F000050400000903FE6
:103B3000EF39FAFE422EE63F0000E0C00000E04010
:103B40000020CDE9020007E00020014902E000BFAB
:103B50000000F07FCDE9020102F0B0FB22210160FC
:103B6000BDF904000028DDE9020118BF81F0004121
:103B70000FB0BDE8F08910B582B000240094FFF7C3
:103B8000E3FD1CBD00000000000000000000F0BFCD
:103B90000000000000000080000000000000008025
:103BA0000000000000000000000000C05294EEBFC2
:103BB00000000048204E51BE000000F86467BCBC05
:103BC0000000000000000000000000208133EDBF75
:103BD00000000080B3DB14BE000000506706A3BCE9
:103BE0000000000000000000000000D0E9DCEBBF96
:103BF00000000008C39259BE00000080B0D3B8BCDA
:103C0000000000000000000000000070F98FEABF13
:103C1000000000C0A51028BE000000E8BFC0B0BC76
:103C2000000000000000000000000070284CE9BF08
:103C300000000060134B42BE000000C03D20B8BC35
:103C4000000000000000000000000050FA10E8BF73
:103C5000000000C05FF62BBE000000905C71A7BCA6
:103C6000000000000000000000000020FCDDE6BFB6
:103C7000000000C0F8F154BE00000018E9F6B9BC1D
:103C80000000000000000000000000D0C3B2E5BF4B
:103C900000000070E43254BE00000050DB06B4BCEB
:103CA000000000000000000000000010EF8EE4BFE4
:103CB00000000020F36252BE000000C02A879ABCB8
:103CC0000000000000000000000000B02272E3BF0E
:103CD000000000F0E8E056BE00000028352DBDBC15
:103CE0000000000000000000000000000A5CE2BFCD
:103CF000000000B0FA8E41BE00000040AE6FBDBCB7
:103D0000000000000000000000000000564CE1BF71
:103D1000000000F015CD5FBE00000000141C90BC38
:103D2000000000000000000000000040BD42E0BFB5
:103D300000000030F93457BE000000E06C1E93BC58
:103D40000000000000000000000000E0F57DDEBF84
:103D5000000000B08A535EBE00000080DA77AABC83
:103D60000000000000000000000000C09D81DCBFDA
:103D700000000000FFA226BE0000006057E2B0BCB9
:103D8000000000000000000000000060F98FDABFB2
:103D9000000000580A8151BE000000F05F60B8BC0E
:103DA00000000000000000000000000098A8D8BF3C
:103DB000000000607A7F45BE000000D05433A3BCF1
:103DC0000000000000000000000000600FCBD6BF24
:103DD000000000D091CB40BE000000406D1BA0BC95
:103DE0000000000000000000000000A0FBF6D4BFAF
:103DF00000000098C5CE52BE000000003A397EBCDB
:103E00000000000000000000000000E0FE2BD3BF17
:103E10000000004073872BBE00000000926879BC50
:103E2000000000000000000000000040C069D1BF99
:103E300000000058F16353BE00000080438D7CBC3D
:103E4000000000000000000000000080D85FCFBF2D
:103E5000000000181F8354BE000000B03F42A2BC07
:103E600000000000000000000000008067FCCBBFE5
:103E700000000060FAFF53BE00000050E00DB8BC27
:103E800000000000000000000000000098A8C8BF6B
:103E9000000000607A7F35BE000000C0543393BC40
:103EA000000000000000000000000000DC63C5BF4F
:103EB00000000058D6FF54BE00000000396490BCDA
:103EC0000000000000000000000000C0AD2DC2BFD7
:103ED00000000080A45915BE000000E0484BABBCB8
:103EE0000000000000000000000000801A0BBEBFB0
:103EF00000000050BF3C5ABE000000A0B364B6BC36
:103F000000000000000000000000008004D6B7BFE1
:103F100000000040BBCF36BE0000008076CEA8BCBB
:103F200000000000000000000000008032BBB1BFB4
:103F3000000000402A0043BE00000028C60CBDBCA3
:103F40000000000000000000000000009473A7BF04
:103F5000000000182B3B59BE000000C0E55DA5BC69
:103F6000000000000000000000000000EE4397BFCA
:103F7000000000A0E6C340BE00000020958DB5BC47
:103F800000000000000000000000000000000080B1
:103F90000000000000000080000000000000008021
:103FA0000000000000000000B0B581EA030C0CF036
:103FB000004C40F2FF7515EA11541DBF15EA135766
:103FC000AC42AF4239E0E41923EA455343F480138D
:103FD000C90241F0004141EA505EC7021100A7FB4F
:103FE000020200284FF00000EEFB01204FF000011C
:103FF000E3FB072118BF42F00102401800214941AC
:10400000E3FB0E01A4F580640F0302D2520040418D
:10401000494154F101046CDD470872F1004250F14E
:10402000000051EB0451A1F580115CBF41EA0C0185
:10403000B0BD4CEA05510020B0BD05EA1357AC42B3
:1040400014BFAF4241E050EA410E1CBF52EA430E9A
:1040500002E061460020B0BD24423C441BD15FEA2F
:10406000070EF6D0090302BF01460020AEF1140E80
:10407000B1FA81F7AEEB070401FA07FE0C37C7F17E
:10408000200100FA07F7C8404EEA000E23EA455324
:1040900043F48013A2E733F00043B3FA83F704BF7D
:1040A000B2FA82FE77440B3FE41BB7F1200E2FBF1C
:1040B00002FA0EF3BB40C7F1200E22FA0EFE38BF03
:1040C00043EA0E03BA40641C82E750EA410E14BF73
:1040D00052EA430E6FF000014FF4001717EB430F45
:1040E0008ABF194617EB410FB5E74CEA055100208E
:1040F000B0BDD4F10104B4F120070FDAC4F12007F8
:10410000520828BF42F0010210FA07F501FA07F73A
:10411000E1BF2A43E0403843E1400FE0352C98DC12
:10412000C7F1200452EA400220FA07F218BF42F019
:10413000010231FA07F0A1400A43002172F1004266
:1041400050F1000051EB0C01B0BD000038B5040087
:104150000D0064B2002C03D0022C66D049D380E05D
:10416000DFF88804006850F08070DFF88014086081
:104170006DB2002D0BD0022D15D00ED3042D1ED004
:1041800017D3062D27D020D3072D2AD02FE04FF4A8
:104190008061412001F0DAFB2AE04FF48061422087
:1041A00001F0D4FB24E04FF48061432001F0CEFB0A
:1041B0001EE04FF48061442001F0C8FB18E04FF48A
:1041C0004071072001F0C2FB12E04FF480616520CE
:1041D00001F0BCFB0CE04FF48061662001F0B6FBFF
:1041E00006E04FF48061672001F0B0FB00E038E0AA
:1041F00037E0DFF8F803006850F00070DFF8EC13E8
:1042000008606DB2002D02D0012D06D00BE04FF4F6
:1042100040710C2001F09AFB06E04FF440710D2034
:1042200001F094FB00E01CE01BE0DFF8C403006831
:1042300050F08070DFF8B81308606DB2002D02D026
:10424000012D06D00BE04FF440710A2001F07EFBF7
:1042500006E04FF440710B2001F078FB00E000E035
:10426000FFE731BD2DE9F84F04000D0016001F00D7
:1042700064B2002C0ED064B2012C02D064B2022CC5
:1042800002D16DB2022D05DB40F28511DFF8640327
:1042900001F011FF290049B2200040B2FFF756FF9C
:1042A000DFF8540300684FF47A71484380465FEAB0
:1042B0001840B0FBF6F08146002082461FFA89F9CB
:1042C00059FA0AF0012802DB1AF1010AF6E75FFA4F
:1042D0008AFABAF1080F05DB4FF4D071DFF8140346
:1042E00001F0E9FE38FA0AF0B0FBF6F0814664B25C
:1042F000DFF808031FFA89F940F8249064B2002C13
:1043000003D0022C19D00CD323E01FFA89F919F13C
:10431000010000FB07F042F21071B0FBF1F08346A0
:1043200017E01FFA89F919F1010000FB07F042F2CA
:104330001071B0FBF1F083460BE01FFA89F919F117
:10434000010000FB07F042F21071B0FBF1F0834670
:10435000FFE76DB264B2DFF8A80250F8240010EB5A
:10436000C5006DB264B2DFF8981251F8241011EB59
:10437000C501C96831F00401C1606DB264B2DFF8F3
:10438000800250F8240010EBC5002821C16064B2FF
:10439000DFF86C0250F824005FFA8AFA1AF007017D
:1043A00051F00801016064B2DFF8540250F82400B3
:1043B0001FFA89F9C0F8089064B2DFF8440250F897
:1043C00024000021C1646DB264B2DFF8340250F8F9
:1043D000240010EBC5001FFA8BFBC0F810B064B2CC
:1043E000DFF81C0250F8240000214160BDE8F18F85
:1043F0002DE9F04104000D0016005FF0000864B2E2
:10440000002C0ED064B2012C02D064B2022C02D176
:104410006DB2022D05DB4FF4F371DFF8D80101F026
:104420004AFE64B2DFF8D40150F82400804664B23A
:10443000002C03D0022C15D00AD31DE018F1010086
:1044400000FB06F042F21071B0FBF1F0070013E040
:1044500018F1010000FB06F042F21071B0FBF1F020
:10446000070009E018F1010000FB06F042F21071AC
:10447000B0FBF1F00700FFE76DB264B2DFF8800136
:1044800050F8240010EBC5000761BDE8F08110B5BD
:10449000040064B2012C07D064B2022C04D04FF4A3
:1044A0003171544801F007FE64B22000012802D0A7
:1044B000022811D021E04D48006850F000704B49AF
:1044C00008604FF4E0610C2001F040FA4FF4E06125
:1044D0000D2001F03BFA15E04548006850F080706F
:1044E000434908604FF4C061322001F02FFA4FF4C5
:1044F000C061332001F02AFA04E04FF43F713D48D7
:1045000001F0D9FD64B23E4850F82400406D50F0EF
:10451000040064B23A4951F82410486564B238483E
:1045200050F82400D0F8800050F0080064B23449FC
:1045300051F82410C1F8800064B2314850F82400CA
:104540000021C16464B22E4850F824004FF6FF7178
:10455000816064B22A4850F82400D0F8800050F0FE
:10456000010064B2264951F82410C1F8800064B2F9
:10457000234850F82400406D50F0010064B22049F7
:1045800051F82410486564B21D4850F824000021F9
:10459000416010BD38B5040064B2012C07D064B28C
:1045A000022C04D040F21931124801F084FD64B2AB
:1045B000134850F8240040680500280000B232BDBE
:1045C00010B5040064B2012C07D064B2022C04D0F0
:1045D00040F22731074801F06EFD64B2084850F8F8
:1045E00024000021416010BD000000003C80044018
:1045F00030800440A0960000E013FF1FCC0FFF1F87
:10460000000CFF1F1948007850F08000174908700F
:104610001148006850F001000F4908600F48002160
:10462000016010485FF0FF3101600D4823210160F7
:104630000A4801210160704708490968090603D545
:104640005FF0FF31080006E007490968490132229E
:10465000B1FBF2F1080070473880044000000440CC
:1046600004000440080004400C00044000500640D0
:1046700038B5040064B26511EDB2002D02D0012DF1
:1046800011D021E0A348006850F00060A149086003
:10469000A148006830F090009F4908609E489E49FC
:1046A0000968016014E09D48006850F000609B4973
:1046B00008609948006830F41040974908609648AF
:1046C00095490968016003E03321954801F0F3FC46
:1046D00064B22000002800F08980012800F0868064
:1046E000032800F0838008284ED0092851D00A28DA
:1046F00054D00B2857D00C285AD00D285DD00E2846
:1047000060D00F2863D0102870D0112864D01228F0
:1047100067D013286AD0142868D01A2866D01D28BC
:1047200064D01E2862D0202861D021285FD02328A1
:104730005DD024285CD025285FD0262862D0272889
:1047400065D0282868D029286BD02A286ED02B283D
:1047500071D02C2874D02D2877D02E287AD02F28ED
:104760007DD0302800F0858031287DD0322800F0BF
:10477000808033287DD034287BD03A2879D03D28DA
:1047800077D03E2875D075E00021202001F0DEF8BA
:1047900074E00021212001F0D9F86FE0002107200A
:1047A00001F0D4F86AE00021082001F0CFF865E0BC
:1047B0000021222001F0CAF860E00021232001F04E
:1047C000C5F85BE00021402001F0C0F856E0002170
:1047D000412001F0BBF851E00021982001F0B6F82B
:1047E0004CE00021992001F0B1F847E046E045E0B7
:1047F0000021802001F0AAF840E00021812001F092
:10480000A5F83BE00021822001F0A0F836E000216D
:10481000832001F09BF831E00021202001F096F880
:104820002CE00021212001F091F827E00021242034
:1048300001F08CF822E00021252001F087F81DE02E
:104840000021262001F082F818E00021272001F045
:104850007DF813E000212A2001F078F80EE0002115
:104860002B2001F073F809E00021112001F06EF80F
:1048700004E003E09A212A4801F01DFC31BDF8B59F
:1048800004000D0064B266110027290049B220001F
:1048900040B200F01CF876B2224850F826000068BA
:1048A0000006F8D576B21F4850F8260000690700C8
:1048B00076B21C4850F82600006830F0800076B2CE
:1048C000184951F826100860380080B2F2BD30B4A3
:1048D00040B2421110F01F0352B2124C54F8224061
:1048E00049B28D0015F00C0555F05005A56052B287
:1048F0000C4C54F822400425E56052B2094C54F89F
:104900002240DBB213F01F0555F04005256030BC96
:10491000704700003C800440188004403080044010
:104920000C370000F004FF1F80B500220121812018
:1049300000F078FF00220121802000F073FFDFF8F3
:10494000A0050021016000BFDFF89805012101608A
:1049500000BF00BF00BF00BF00BF00BF00BF00BF5F
:1049600000BF00BF00BF00BF00BF00BF00BF00BF4F
:1049700000BFDFF86C050121016000BF00BF00BF70
:1049800000BF00BF00BF00BF00BF00BF00BF00BF2F
:1049900000BF00BF00BF00BF00BF00BF00BF00BF1F
:1049A00000BF00BF00BF00BF00BF00BF00BF00BF0F
:1049B00000BF00BF00BF00BF00BF00BF00BF00BFFF
:1049C00000BF00BF00BF00BF00BF00BF00BF00BFEF
:1049D00000BF00BF00BF00BF00BF00BF00BF00BFDF
:1049E00000BF00BF00BF00BFDFF8F8040021016076
:1049F00000BF00BF00BF00BF00BF00BF00BF00BFBF
:104A000000BF00BF00BF00BF00BF00BF00BF00BFAE
:104A100000BF00BF00BF00BF00BF00BF00BF00BF9E
:104A200000BF00BF00BF00BF00BF00BF00BF00BF8E
:104A300000BF00BF00BF00BF00BF00BF00BF00BF7E
:104A400000BF00BF00BF00BF00BF00BF00BF00BF6E
:104A500000BF00BF00BF00BF00BF00BF00BFDFF846
:104A600080040021016001BD80B500220121812068
:104A700000F0D8FE00220121802000F0D3FEDFF8F4
:104A800060040021016000BF00BF00BF00BF00BF85
:104A900000BF00BF00BF00BF00BF00BF00BF00BF1E
:104AA00000BF00BF00BF00BFDFF838040021016075
:104AB00000BF00BF00BF00BF00BF00BF00BF00BFFE
:104AC00000BF00BF00BF00BF00BF00BF00BF00BFEE
:104AD00000BFDFF80C040121016000BF00BF00BF70
:104AE00000BF00BF00BF00BF00BF00BF00BF00BFCE
:104AF00000BF00BF00BF00BF00BF00BF00BF00BFBE
:104B000000BF00BF00BF00BF00BF00BF00BF00BFAD
:104B100000BF00BF00BF00BF00BF00BF00BF00BF9D
:104B200000BF00BF00BF00BF00BF00BF00BF00BF8D
:104B300000BF00BF00BF00BF00BF00BF00BF00BF7D
:104B400000BF00BF00BF00BFE6480121016000BFF9
:104B500000BF00BF00BF00BF00BF00BF00BF00BF5D
:104B600000BF00BF00BF00BF00BF00BF00BF00BF4D
:104B700000BF00BF00BF00BF00BF00BF00BF00BF3D
:104B800000BF00BF00BF00BF00BF00BF00BF00BF2D
:104B900000BF00BF00BF00BF00BF00BF00BF00BF1D
:104BA00000BF00BF00BF00BF00BF00BF00BF00BF0D
:104BB00000BF00BF00BF00BF00BF00BFC84800214A
:104BC000016001BD38B5040000220121812000F000
:104BD00029FE00220121802000F024FE00BF0020D9
:104BE0000500EDB2082D5EDABD4800210160E4B297
:104BF00014FA05F0000603D5BA480121016002E06D
:104C0000B8480021016000BF00BF00BF00BF00BF67
:104C100000BF00BF00BF00BF00BF00BF00BF00BF9C
:104C200000BF00BF00BF00BFAD480121016000BF51
:104C300000BF00BF00BF00BF00BF00BF00BF00BF7C
:104C400000BF00BF00BF00BF00BF00BF00BF00BF6C
:104C500000BF00BF00BF00BF00BF00BF00BF00BF5C
:104C600000BF00BF00BF00BF00BF00BF00BF00BF4C
:104C700000BF00BF00BF00BF00BF00BF00BF00BF3C
:104C800000BF00BF00BF00BF00BF00BF00BF00BF2C
:104C900000BF00BF00BF00BF00BF00BF90480021A1
:104CA00001606D1C9DE700BF00BF00BF00BF00BFDB
:104CB00000BF00BF00BF00BF00BF00BF00BF00BFFC
:104CC00000BF00BF00BF00BF00BF00BF00BF00BFEC
:104CD00000BF00BF00BF00BF00BF00BF00BF00BFDC
:104CE00000BF00BF00BF00BF00BF00BF00BF00BFCC
:104CF00000BF00BF00BF00BF00BF00BF00BF00BFBC
:104D000000BF00BF00BF00BF00BF00BF00BF00BFAB
:104D100000BF00BF73480121016000BF00BF00BF9A
:104D200000BF00BF00BF00BF00BF00BF00BF00BF8B
:104D300000BF00BF00BF00BF00BF00BF6848012127
:104D4000016000BF00BF00BF00BF00BF00BF00BFC9
:104D500000BF00BF00BF00BF00BF00BF00BF00BF5B
:104D600000BF00BF00BF00BF00BF00BF00BF00BF4B
:104D700000BF00BF00BF00BF00BF00BF00BF00BF3B
:104D800000BF00BF00BF00BF00BF00BF00BF00BF2B
:104D900000BF00BF00BF00BF00BF00BF00BF00BF1B
:104DA00000BF00BF00BF00BF00BF00BF00BF00BF0B
:104DB0004B480021016031BD38B500220021802020
:104DC00000F030FD00220121812000F02BFD0020A9
:104DD000050043480021016000BF00BF00BF00BFC5
:104DE00000BF00BF00BF00BF00BF00BF00BF00BFCB
:104DF00000BF00BF00BF00BF00BF00200400E4B23E
:104E0000082C67DA00BF00BF00BF00BF00BF00BFB3
:104E100000BF00BF00BF00BF00BF00BF00BF00BF9A
:104E200000BF00BF00BF2E480021016000BF00BFCF
:104E300000BF00BF00BF00BF00BF00BF00BF00BF7A
:104E400000BF00BF00BF00BF00BF00BF00BF00BF6A
:104E500000BF00BF00BF00BF00BF00BF00BF00BF5A
:104E600000BF00BF00BF00BF00BF00BF00BF00BF4A
:104E700000BF00BF00BF00BF00BF00BF00BF00BF3A
:104E800000BF00BF00BF00BF00BF00BF00BF00BF2A
:104E900000BF00BF00BF00BF00BF1148012101607B
:104EA00000BF00BF00BF00BF00BF00BF00BF00BF0A
:104EB00000BF00BF00BF00BF00BF00BF00BF00BFFA
:104EC00000BF6D00DFF884000068002800D06D1C72
:104ED000641C94E70248002101602800C0B232BD82
:104EE0000420FE430020FE4370B504000D001600B0
:104EF000FFF71AFD2000C0B2FFF764FE2800C0B221
:104F0000FFF760FE3000C0B2FFF75CFEFFF7ACFDBC
:104F100070BD70B504000D006426FFF705FD20008C
:104F2000C0B2FFF74FFE2800C0B2FFF74BFEFFF7FD
:104F3000FBFC601CC0B2FFF745FEFFF73DFF06001B
:104F4000FFF792FD3000C0B270BD00000022FE43AA
:104F500080B50F222021D220FFF7C6FF0022212199
:104F6000D220FFF7C1FF08222221D220FFF7BCFF89
:104F700030222321D220FFF7B7FF00222421D220A4
:104F8000FFF7B2FF01BD2DE9F84F04000D00002727
:104F90005FF00008EDB2582D04D129208246282068
:104FA00083460EE0EDB2592D04D12B2082462A20F3
:104FB000834606E0EDB25A2D03D12D2082462C20E7
:104FC0008346002081465FFA89F9E4B2A14517D2F1
:104FD0005146C9B2D220FFF79CFF8DF80000594618
:104FE000C9B2D220FFF795FF06009DF8000000022D
:104FF00050FA86F0804607FA88F719F10109E2E7CE
:10500000E4B297FBF4F0BDE8F28F000038B50FB4BE
:10501000DDE9020101F054FC0546DDE9000101F083
:105020004FFC0246012DB8BF012A2CDA0198002856
:1050300007D5DDE9000181F00041CDE90001082438
:1050400000E000240398002807D5DDE9020181F083
:105050000041CDE9020184F00604DDE90201DDE949
:10506000002301F049F902D201F05EF927E0002D9A
:1050700006D5DDE90001DDE9022301F055F920E064
:10508000002000211DE0022A08BFDDE900011ED03A
:10509000022D08BFDDE9020119D0954207BF0020AB
:1050A0000C4900200021019B002B4CBF0824002448
:1050B000039B002B48BF84F00604012A01D184F031
:1050C0000204224605B0BDE8304001F031BC05B015
:1050D00030BD00BF0000F03F010040F10980F44600
:1050E000404200F005F851F000416047010000BF68
:1050F00009D0B0FA80F18840C91CC1F58461090566
:1051000001EBD0214005704738B504000D002800A0
:105110007C490968FEF7BAF87B490968FEF72AF965
:105120007A490968FDF73EFF7849086078480068C9
:1051300078494968FEF7AAF876498968FEF7A6F823
:105140007549086074487349C96891F0004141602D
:1051500071487049C96891F0004181606E486F499B
:105160000968C1606C48016867480068FEF702F989
:1051700068490968FDF716FF664908606648416896
:1051800061480068FEF7F6F862494968FDF70AFFD2
:1051900060494860604881685B480068FEF7EAF84B
:1051A0005C498968FDF7FEFE5A4988605A48C16823
:1051B00055480068FEF7DEF85649C968FDF7F2FE6B
:1051C0005449C860200051490968FEF75FF8544906
:1051D0000860544890F90000FEF73EF84D49096810
:1051E000FEF7C8F8504908604E4890F90000FEF7F5
:1051F00033F848498968FEF7BDF84C4908604948CA
:1052000090F90000FEF728F847490968FEF7B2F860
:1052100047490968FDF7C6FE4649086042480068EC
:1052200044490968FEF712F9434908603F4800689D
:1052300040490968FEF70AF94049086040483A4980
:1052400009680160374890F90000FEF705F8314918
:105250004968FEF78FF83B490860374801683848CD
:105260000068FEF787F801002A480068FEF70EF88C
:10527000284908603048016832480068FEF77AF82B
:10528000010024484068FEF701F8224948602B4895
:1052900001682B480068FEF76DF801001D48806822
:1052A000FDF7F4FF1B498860244801682548006821
:1052B000FEF760F801001748C068FDF7E7FF1549E1
:1052C000C8601D48016816480068FEF753F80F498A
:1052D0000968FDF767FE0D49086018480168104825
:1052E0000068FEF747F807490968FDF75BFE0549C6
:1052F0000860280003490968FDF7C8FF12490860E3
:1053000031BD0000B00EFF1F1C04FF1FA80EFF1FC1
:105310001004FF1F2404FF1FD40EFF1F1404FF1FDF
:10532000B40EFF1F2004FF1FB80EFF1FBC0EFF1F8F
:105330001804FF1FC00EFF1FC40EFF1FC80EFF1F63
:10534000CC0EFF1FD00EFF1FAC0EFF1FF446400D0A
:1053500040EAC120490006D200F014F8004248BFDC
:105360006FF00040604700F00DF84FF000418842B8
:105370008CBF084640426047400D40EAC1204900CA
:1053800080F00D8040F00040490DA1F58061491C7E
:1053900005D4D1F11F0154BFC840C01770474FF06A
:1053A0000000704738B500200400E4B2082C20DA71
:1053B0000021B4F15000C0B200F01CF80021002020
:1053C00000F018F80021102000F014F8002005006B
:1053D000EDB2802D0BDA0121E4B2EDB2DFF8280442
:1053E00010EBC500205C00F005F86D1CF0E7641CB4
:1053F000DBE731BD10B4C9B2002904D0DFF80C34AA
:1054000001241C6003E0DFF8043400241C60002346
:105410001A00D2B2082A15DADFF8F43300241C602F
:10542000030604D5DFF8EC3301241C6003E0DFF849
:10543000E43300241C60DFF8D83301241C604000F2
:10544000521CE6E7DFF8C43301241C6010BC70472F
:1054500080B500218D20FFF7CDFF00211420FFF73C
:10546000C9FF0021AF20FFF7C5FF01BD38B50020FF
:105470000400E4B2082C10DA00200500EDB2802D03
:1054800009DAE4B2EDB2DFF8800310EBC5000021C9
:1054900021546D1CF2E7641CEBE7FFF783FF31BD7D
:1054A000F0B40025C0B2802802DAC9B2402900DB7E
:1054B00030E0C9B2082691FBF6F6D6F107063300B4
:1054C000C9B2082691FBF6F707FB16173C00012628
:1054D000D4F10707BE403500D2B2002A0DD0DBB2AE
:1054E000C0B2C94E16EBC006DBB2C0B2C64F17EB56
:1054F000C007DF5D2F439F550CE0DBB2C0B2C24E48
:1055000016EBC006DBB2C0B2BF4F17EBC007DF5DC2
:10551000AF439F55F0BC70472DE9F84F05000E00D2
:10552000170098460A9C8DF80060203F00208246B4
:105530005FFA8AFA5FFA88F8C2454ED25FFA88F8B5
:10554000B8F10C0F0AD15FFA8AFAFFB20C20B24907
:1055500000FB07101AF80000814608E05FFA8AFA9B
:10556000FFB2AE4810EB07101AF800008146002089
:1055700083465FFA8BFBBBF1080F2BDA5FEA096009
:1055800008D52200D2B23100C9B22800C0B2FFF75C
:1055900087FF0CE0E4B2002C01D1012200E00022E0
:1055A000D2B23100C9B22800C0B2FFF779FF5FEA7A
:1055B0004909761CF6B29DF80000301A5FFA88F8A7
:1055C000404504D19DF8000006006D1C02E01BF16F
:1055D000010BCEE71AF1010AAAE7BDE8F18F02003C
:1055E00001200B00591EDBB2002B02D0D2B2504377
:1055F000F7E770472DE9F84F05008B4616001F00AE
:105600000A9C5FF0000A002080465FFA88F8FFB22B
:10561000B8454ED2B7EB0800411EC9B20A20FFF7C9
:10562000DEFFB6FBF0F00A21B0FBF1F201FB120045
:1056300081465FFA8AFABAF1000F21D15FFA88F841
:10564000FFB2781E80451BDA5FFA89F9B9F1000FC5
:1056500014D1012000902300DBB220225946C9B2A8
:10566000E4B2022094FBF0F05FFA88F808FB00F047
:1056700050FA85F0C0B2FFF74FFF17E001208246D5
:10568000012000902300DBB219F13002D2B259465A
:10569000C9B2E4B2022094FBF0F05FFA88F808FB8C
:1056A00000F050FA85F0C0B2FFF736FF18F101089C
:1056B000ABE7BDE8F18F70B582B004000D001600B5
:1056C000307800281AD0E4B27B2C02DB00200400E2
:1056D0001035EDB23B2D04DB002004000500FFF780
:1056E000C5FE012000900C2332782900C9B22000A9
:1056F000C0B2FFF711FF0834761CE1E773BD80B537
:1057000001220121482000F08DF8012201214920C9
:1057100000F088F8012201214A2000F083F80122DC
:1057200001214B2000F07EF83D48002101606420FB
:10573000FDF721FC3A48012101600021AE20FFF76E
:1057400059FE0021D520FFF755FE00215020FFF71C
:1057500051FE0021A820FFF74DFE00213F20FFF75A
:1057600049FE0021D320FFF745FE00210020FFF76E
:1057700041FE00214020FFF73DFE00218D20FFF774
:1057800039FE00211420FFF735FE00212020FFF70D
:1057900031FE00210220FFF72DFE0021A120FFF79E
:1057A00029FE0021C020FFF725FE0021DA20FFF7A7
:1057B00021FE00211220FFF71DFE00218120FFF7AE
:1057C00019FE0021EF20FFF715FE0021D920FFF779
:1057D00011FE0021F120FFF70DFE0021DB20FFF775
:1057E00009FE00213020FFF705FE0021A420FFF76D
:1057F00001FE0021A620FFF7FDFD0021AF20FFF7ED
:10580000F9FDFFF733FE01BDD80FFF1F2C10FE433B
:105810002010FE432410FE43B88A0000C884000014
:105820002810FE4370B504000D0016004FF480717F
:105830002000C0B200F08AF86DB2002D11D1E4B2A0
:105840006011404951F82000E4B261113D4A52F81C
:1058500021104969012214F01F039A4091434161CC
:1058600036E0E4B26011374951F82000E4B261112A
:10587000344A52F821104969012214F01F039A405A
:1058800011434161F6B2002E11D1E4B260112D49ED
:1058900051F820000068012114F01F029140884354
:1058A000E4B26111274A52F82110086010E0E4B216
:1058B0006011244951F820000068012114F01F02F2
:1058C00091400843E4B261111E4A52F82110086069
:1058D00070BD10B50400E4B260111A4951F82000FF
:1058E000406914F01F01C840C00703D47B2116484B
:1058F00000F0E1FBE4B26011124951F820000121EF
:1059000014F01F029140C16010BD10B50400E4B254
:1059100060110C4951F82000406914F01F01C84083
:10592000C00703D58C21084800F0C5FBE4B2601124
:10593000044951F82000006914F01F01C84010F01C
:10594000010010BD0C0CFF1FDC96000010B4294AAA
:1059500012684FF40073C0B24409A3401A43254BA8
:105960001A60C0B24211244B53F82220012310F0D8
:105970001F04A340C2F8A030C0B210F01F02C0B292
:1059800043111D4C54F8233043F8221010BC7047CB
:1059900010B4184A12684FF40073C0B24409A3400F
:1059A0001A43144B1A60C0B24211134B53F8222011
:1059B000012310F01F04A340C2F8A03031F4E061CD
:1059C000C0B210F01F02C0B243110B4C54F8233088
:1059D00053F8222012F4E0621143C0B210F01F020B
:1059E000C0B24311044C54F8233043F8221010BCC9
:1059F0007047000038800440680CFF1F2DE9F84311
:105A000004000D0064B2002C08D0022C2CD018D356
:105A1000042C4FD03BD3052C5FD071E0DFF810028F
:105A2000006850F48060DFF8081208604FF440719D
:105A30006620FFF78BFF4FF440716720FFF786FF6A
:105A40005EE0DFF8EC01006850F40060DFF8E01180
:105A500008604FF440714320FFF778FF4FF4407126
:105A60004420FFF773FF4BE0DFF8C401006850F4F7
:105A70008050DFF8BC1108604FF440716320FFF7DD
:105A800065FF4FF440716220FFF760FF38E0DFF8F8
:105A9000A001006850F40050DFF8941108604FF442
:105AA00040715020FFF752FF4FF440715120FFF733
:105AB0004DFF25E0DFF87C01006850F48060DFF8DE
:105AC000741108604FF440719920FFF73FFF4FF4C5
:105AD00040719820FFF73AFF12E0DFF858010068A4
:105AE00050F40060DFF84C1108604FF440718920D9
:105AF000FFF72CFF4FF440718820FFF727FFFFE7E7
:105B000064B2DFF8340150F82400C07810F0F300DC
:105B100064B2DFF8241151F82410C87064B2DFF8C1
:105B2000180150F8240064B2DFF80C1151F8241069
:105B30008978817064B2002C02D064B2012C07D144
:105B4000DFF8F80000684FF47A714843814606E0B8
:105B5000DFF8EC0000684FF47A7148438146280171
:105B6000B9FBF0F00600B6B2B6F5005F02DB41F615
:105B7000FF700600B9FBF5F0B6B2B0EB06100700F7
:105B8000BFB2202F03DBDC212E4800F094FA64B270
:105B9000294850F82400007810F0E0008046B6B2A2
:105BA000300A10F01F0050EA080064B2224951F890
:105BB0002410087064B2204850F82400467064B283
:105BC0001D4850F82400807A10F0E000804664B24E
:105BD000194850F8240017F01F0151EA080181729A
:105BE00064B2154850F82400007C50F0880064B27C
:105BF000114951F82410087464B20F4850F8240079
:105C0000C07850F00C0064B20B4951F82410C870F1
:105C1000BDE8F18340B2084A52F8202012791206FA
:105C2000F8D540B2044A52F82020D17170470000E4
:105C300034800440288004407C0CFF1FD813FF1FD1
:105C4000E013FF1F5497000038B504000D00002D2D
:105C500003D12221174800F02EFA1748006850F4AB
:105C600000001549086015480021016064B2200158
:105C700013496A1E425064B2114810EB0410C06808
:105C800050F0010064B20E4911EB0411C86064B217
:105C90000B4810EB041080684008400064B20849CB
:105CA00011EB0411886064B2054810EB0410032165
:105CB000816031BD189700003C80044000700340B3
:105CC0000071034010B504004FF4007094FBF0F134
:105CD00001FB1041002903D01E210B4800F0EBF915
:105CE0000A48046010BD38B504000D00074800687C
:105CF0000749884203D03021034800F0DCF964B240
:105D0000034840F8245031BD9097000008ED00E0B2
:105D10000000FF1FDFF800F0410DFF1FDFF800F06B
:105D2000990DFF1F80B5FF20FFF7F4FFB148006811
:105D300000F0EEFE02000021FF20FFF7EFFFAE486B
:105D400002680421FF20FFF7E9FFAC480168AC4876
:105D5000FDF710FB00F0DCFE02000821FF20FFF73A
:105D6000DDFFA8480168A648FDF704FB00F0D0FE5F
:105D700002000C21FF20FFF7D1FFA3480168A048D3
:105D8000FDF7F8FA00F0C4FE02001021FF20FFF733
:105D9000C5FF9E4802681421FF20FFF7BFFF9C4803
:105DA00001689748FDF7E6FA00F0B2FE02001821FC
:105DB000FF20FFF7B3FF974801689148FDF7DAFA33
:105DC00000F0A6FE02001C21FF20FFF7A7FF92486B
:105DD00002682021FF20FFF7A1FF9048006800F033
:105DE00097FE02002421FF20FFF798FF8C480168EE
:105DF0008348FDF7BFFA00F08BFE02002821FF2048
:105E0000FFF78CFF874801687D48FDF7B3FA00F083
:105E10007FFE02002C21FF20FFF780FF82480268EE
:105E20003021FF20FFF77AFF804802683421FF20ED
:105E3000FFF774FF7E4801687148FDF79BFA00F098
:105E400067FE02004021FF20FFF768FF79480168E4
:105E50006B48FDF78FFA00F05BFE02004421FF2043
:105E6000FFF75CFF744802684821FF20FFF756FFE8
:105E7000724802684C21FF20FFF750FF704801680C
:105E800091F000415E48FDF775FA00F041FE020016
