:10000000F8FF0020110400003B5600003B560000A2
:100010003B5600003B5600003B5600003B5600009C
:100020003B5600003B5600003B5600003B5600008C
:100030003B5600003B5600003B5600003B5600007C
:100040003B5600003B5600003B5600003B5600006C
:10040000FFFFFFFFFFFFFFFFFFFFFFFFFEFFFFFFFD
:1004100062B608F0CBFAFEE7DFF800F0050DFF1F2B
:1004200010B440B24109DFF8D02D012310F01F04B1
:10043000A34042F8213010BC704700B2002801D51B
:1004400000B2404200B2704780B5DFF89406012147
:100450000170DFF8900601210160002002F056F9DA
:10046000DFF8981D0860322002F0E5F9002002F064
:100470004DF9DFF8881D0860322002F0DCF9002019
:1004800002F044F9DFF8741D0860322002F0D3F95D
:10049000002002F03BF9DFF8641D0860322002F012
:1004A000CAF9002002F032F9DFF8501D08604FF45D
:1004B000FA7002F0C0F9002002F028F9DFF83C1DC4
:1004C0000860DFF8200600210160002002F01EF91C
:1004D000DFF8281D0860322002F0ADF9002002F09C
:1004E00015F9DFF8181D0860322002F0A4F9002089
:1004F00002F00CF9DFF8041D0860322002F09BF9CD
:10050000002002F003F9DFF8F41C0860322002F04A
:1005100092F9002002F0FAF8DFF8E01C08604FF4CE
:10052000FA7002F088F9002002F0F0F8DFF8CC1C35
:10053000086001BD80B5DFF8B005006850F001002B
:10054000DFF8A415086000F035FFDFF8A00500789B
:10055000401CDFF898150870DFF894050078401CFF
:10056000DFF88C150870DFF88C050068012840F072
:100570005881DFF8FC0D90ED000ADFF87C05D0ED26
:10058000000AB4EE600AF1EE10FA0CD5DFF8E00DC7
:1005900090ED000AF0EE080A30EE200ADFF8D00DE8
:1005A00080ED000A05E0DFF8C80DDFF84C1509689A
:1005B0000160DFF84005006801280DD1DFF83C0537
:1005C000D0ED000ADFF8380590ED000A00F0A8F938
:1005D000DFF8300580ED000ADFF8100500781328F9
:1005E0000BD100F08DFEDFF8180CB0F90010DFF829
:1005F000140CB0F9000000F0E4F900F0A7FFDFF8F8
:1006000008050068012854D1DFF800054068B0F5FE
:10061000E16F1DDDDFF8E80490ED000ADFF8E80B7C
:10062000D0ED000A30EE200ADFEDBC0AB4EE600A1D
:10063000F1EE10FA0CDBDFF8D80401210160DFF8DD
:10064000D40400210160DFF8C00BDFF8CC14016096
:10065000DFF8BC040068012806D1DFF8C004006898
:10066000401CDFF8B8140860DFF8B4040068DFF855
:10067000AC140968884204DADFF88C0BDFF8A414A4
:100680000160DFF8A4040068DFF89014096888426C
:100690000FDADFF87C0400210160DFF8800400211C
:1006A0000160DFF8700401210160DFF838040021E7
:1006B0000160DFF8580400683C280DDADFF84C04CC
:1006C000C0683C2808DADFF8180401210170DFF85F
:1006D0003C0B0121017003E0DFF8300B00210170B9
:1006E000DFF80C040078012811D1DFF8240B90ED1D
:1006F000000ADFF80C0BB0F90010DFF8080BB0F9B6
:10070000000000F013FADFF80C0B80ED000ADFF8B0
:1007100004040068012825D1DFF8580C90ED000A88
:10072000DFF8080CD0ED000A30EE600ADFF8BC03F9
:10073000007800EE900AF8EE600AB7EE001A70EE4C
:10074000810A20EE200AF3EE040A80EE200ADFF888
:10075000DC0BD0ED000A30EE200ADFF8BC0A80ED99
:10076000000A03E0DFF8B00A00210160DFF8AC0AFC
:100770000068012824D1DFF89C0A90ED000ADFF818
:10078000080CD0ED000A30EE600AD948007800EE7F
:10079000900AF8EE600AB7EE001A70EE810A20EEB9
:1007A000200AF0EE000A80EE200ADFF8DC0BD0ED24
:1007B000000A30EE200ADFF8780B80ED000A03E033
:1007C000DFF86C0B00210160CE4890ED000ADFF8E5
:1007D000480AD0ED000A30EE200ADFF8540BD0EDC5
:1007E000000A30EE200ABDEEC00ADFF88C0B80ED67
:1007F000000AC44890ED000ADFF81C0AD0ED000A98
:1008000030EE200ADFF8280BD0ED000A30EE600A47
:10081000BDEEC00ADFF81C0D80ED000A00F08AFD75
:1008200009E0DFF8540B4FF448710160DFF8040D64
:100830004FF448710160AD480078132802D1AB48ED
:1008400000210170AA480078012802D1A84800219F
:100850000170A3480078002815D1DFF8300B00881C
:10086000B0F57A7F06DADFF8240B0088401CDFF849
:100870001C1B0880DFF8BC0C0168DFF8FC0A00686C
:1008800000F0ECFC48E0DFF8080B0078012806D106
:10089000DFF8000B0078401CDFF8F81A0870DFF86A
:1008A000F40A007800281BD0DFF8E80A007847280F
:1008B00016DADFF8C40A40F6B8310160DFF8740CCC
:1008C00040F6B8310160DFF86C0C0168DFF8A80A67
:1008D000006800F0C3FCDFF8980A002101601BE00B
:1008E000DFF8940A00210160DFF8480C0021016064
:1008F000DFF8400C0168DFF8800A006800F0AEFC09
:10090000DFF8900A00210170DFF8840A00210170ED
:10091000DFF85C0A0021016001BD0000FFFFBFC0DD
:10092000B0EE401ADFF8700A00210160DFF8D80845
:1009300090ED002A31EE022AF0EE421ADFF85C0A4E
:1009400090ED002A22EE212ADFF8540A80ED002AD9
:10095000DFF8500ADFF8501A09680160DFF84C0A26
:10096000B0F9000002EE100AB8EEC22ADFF8380A29
:1009700080ED002ADFF8340AB0F9000002EE100A18
:10098000B8EEC22ADFF8180AD0ED002A32EE222A89
:10099000DFF81C0AD0ED002A22EE222ADFF8040A32
:1009A000D0ED002ADFF8000A90ED003A72EEC32A7B
:1009B000DFF8580D90ED003A02EE832AB0EE420ABD
:1009C000704710B4DFF86429DFF8A8391B6813609A
:1009D000DFF83028B2F90020DFF82438B3F900300E
:1009E0009A18022392FBF3F200EE102AB8EEC00A26
:1009F000DFF87C29D2ED000A30EE600ADFF8382BF0
:100A000082ED000A364A1278002A12D1DFF82C2B28
:100A10001268DFF8F037B3F90030DFF8E447B4F9D3
:100A20000040E318022493FBF4F39A18DFF80C3B20
:100A30001A602B4A1278002A11D1DFF8F82C92EDB7
:100A4000000AB8EEC00ADFF8F02AD2ED000A30EE54
:100A5000200ABDEEC00ADFF8DC2C82ED000ADFF8C8
:100A6000D42C126842F235139A4204DBDFF8C42C0E
:100A700042F234131360DFF8BC2C1268DFF8C03A7E
:100A80009A4204DADFF8AC2CDFF8B43A1360DFF8EE
:100A9000B42A92ED000AB1EE400ADFF89C2AD2EDAA
:100AA000000A20EE200ADFF88C2CD2ED000AF8EEC6
:100AB000E00ADFF8942A92ED001AB1EE411A00EE36
:100AC000810ADFF8B02882ED000A054A1278012A6F
:100AD00003D1DFF8602C0023136010BC70470000C6
:100AE0002804FF1F2408FE431C7103400D14FF1F40
:100AF0000E14FF1F5004FF1F3404FF1F040FFF1FBD
:100B0000000FFF1FEC0EFF1F1C04FF1F500FFF1FE5
:100B1000C80EFF1F5404FF1F0000A0C1CC0EFF1F12
:100B20002004FF1F000070C12404FF1F2DE9F843BB
:100B30002DED088B07000E00B0EE409ADFF8D40BC5
:100B4000DFF8D41B09680160DFF8D00B0068401C97
:100B5000DFF8C81B0860DFF8C40B0068042803D165
:100B6000DFF8B80B00210160DFF8B40B90ED000A4C
:100B7000DFF8B00BD0ED000A30EE600ADFED6F0A4F
:100B8000B4EE600AF1EE10FA19D5DFF8940B90ED8F
:100B9000000ADFED6B0AB4EE600AF1EE10FA0ED532
:100BA000DFF8840B0068012804D0DFF8800B0121F6
:100BB0000160CBE0DFF8740B00210160C6E0DFF8D4
:100BC000600B90ED000ADFF85C0BD0ED000A30EE10
:100BD000600ADFED5B0AB4EE600AF1EE10FA19DB91
:100BE000DFF8400B90ED000ADFED550AB4EE600A25
:100BF000F1EE10FA0ED5DFF8340B0068012804D0AE
:100C0000DFF8240B01210160A0E0DFF81C0B0021BC
:100C100001609BE0DFF80C0B90ED000ADFED480A65
:100C2000B4EE600AF1EE10FA3BDBDFF8F40A90ED67
:100C3000000ADFED430AB4EE600AF1EE10FA30DB91
:100C4000DFF8E00A90ED000ADFF8D40AD0ED000AE0
:100C5000B4EE600AF1EE10FA04D5DFF8D40A0121EF
:100C6000016015E0DFF8B80A90ED000ADFF8B40A79
:100C7000D0ED000AB4EE600AF1EE10FA04D5DFF808
:100C8000B00A0221016003E0DFF8A40A002101603C
:100C9000DFF8980A00210160DFF88C0A002101606A
:100CA00054E0DFF87C0A90ED000ADFED250AB4EE8F
:100CB000600AF1EE10FA1AD5DFF8640A90ED000A26
:100CC000DFF8600AD0ED000A30EE600ADFED1B0AA3
:100CD000B4EE600AF1EE10FA09DBDFF8540A00689E
:100CE000022833D1DFF8440A012101602EE0DFF849
:100CF000340A90ED000ADFED120AB4EE600AF1EE5C
:100D000010FA1FD5DFF8180A90ED000ADFF8140A70
:100D1000D0ED000A30EE600ADFED090AB4EE600A99
:100D2000F1EE10FA0ED5DFF8080A006801280DD19F
:100D3000DFF8F4090121016008E000BF8FC2F5BCB3
:100D400090C2F53CDFF8F40901210170DFF8D80901
:100D50000068012872D1DFF8D409006801286DD03D
:100D6000DFF8BC09006801F07DFD02000B00DFF830
:100D7000D009DFF8D01901F0ADFD01F06BFE09EEEE
:100D8000900A9FEDCA1BB0EE418AF0EE618A19EE1F
:100D9000900A01F067FD41EC100BB0EE481AF0EE3E
:100DA000681A02F001F9B0EE408AF0EE608A19EE9E
:100DB000900A01F057FD41EC1B0BDFF88C0900682D
:100DC00001F050FD53EC182B02F00EFB04000D0057
:100DD000DFF87809006801F045FD8046894653EC4C
:100DE0001B2B51EC1B0B02F0FFFA42464B4602F064
:100DF000FBFA22002B0002F0C9FB04000D00DFF813
:100E0000500990ED000A20EE290A10EE100A01F0B8
:100E100029FD22002B0002F0B9FB04000D00DFF8D1
:100E20003409006801F01EFD22002B0002F0AEFB29
:100E300001F010FEDFF8201908600FE1DFF8EC0880
:100E40000068012872D1DFF8E008006801286DD041
:100E5000DFF8D008006801F005FD02000B00DFF8A4
:100E6000FC08DFF8FC1801F035FD01F0F3FD0AEE97
:100E7000100A9FED8E1BB0EE418AF0EE618A1AEEE9
:100E8000100A01F0EFFC41EC100BB0EE481AF0EE46
:100E9000681A02F089F8B0EE408AF0EE608A1AEE25
:100EA000100A01F0DFFC41EC1B0BDFF8B80800680A
:100EB00001F0D8FC53EC182B02F096FA04000D0058
:100EC000DFF8A408006801F0CDFC8046894653ECA9
:100ED0001B2B51EC1B0B02F087FA42464B4602F0EB
:100EE00083FA22002B0002F051FB04000D00DFF812
:100EF0007C0890ED000A20EE0A0A10EE100A01F0BC
:100F0000B1FC22002B0002F041FB04000D00DFF8D1
:100F10006008006801F0A6FC22002B0002F036FBFE
:100F200001F098FDDFF83018086097E0DFF8FC0763
:100F30000068DFF8F41709680843002840F08A8049
:100F4000DFF8DC0790ED000ADFF8D807D0ED000AE3
:100F500030EE600ADFF8C807D0ED000ADFF8C407FA
:100F600090ED001A70EE810A80EE200ADFF86C081E
:100F700080ED000A9FED4D1BB0EE418AF0EE618AD4
:100F8000DFF85808006801F06DFC41EC100BB0EE82
:100F9000481AF0EE681A02F007F8B0EE408AF0EE58
:100FA000608ADFF83808006801F05CFC41EC1B0B3C
:100FB000DFF82C08006801F055FC53EC182B02F008
:100FC00013FA04000D00DFF81C08006801F04AFC69
:100FD0008046894653EC1B2B51EC1B0B02F004FAA4
:100FE00042464B4602F000FA22002B0002F0CEFAF5
:100FF00004000D00DFF8F00790ED000ADFF8DC07D1
:10100000D0ED000A20EE200A10EE100A01F02AFCB2
:1010100022002B0002F0BAFA04000D00DFF8CC0722
:10102000006801F01FFC22002B0002F0AFFA040060
:101030000D00DFF8BC07006801F014FC02000B0093
:101040002000290001F046FC01F004FDDFF808173C
:10105000086003E0DFF8E406012101706B480078C6
:10106000002827D1DFF8C406006801280ED1DFF878
:10107000AC060068012804DBDFF878070121016075
:101080001CE0DFF870070021016017E0DFF8980628
:101090000068012804D1DFF85C07012101600DE040
:1010A000DFF850070021016008E000BF00000000E9
:1010B00000000840DFF83C0700210160DFF88808E5
:1010C000DFF8941609680160DFF84C06DFF878183D
:1010D00009680160AC48DFF8741809680160DFF83E
:1010E000380690ED000ADFF82C06D0ED000A30EE4D
:1010F000600AF0EE40AADFF85008006801F0B2FB89
:1011000041EC180BDFF84C08006801F0ABFB040061
:101110000D00DFF84808006801F0A4FB804689460E
:1011200053EC182B51EC180B02F05EF942464B467B
:1011300002F05AF922002B0002F028FA01F08AFC92
:10114000DFF820180860DFF8000890ED000ADFF8EB
:101150001408D0ED000A20EE200ADFF81408D0EDC4
:10116000000A0AEEA00ADFF80C08D0ED000AF1EE42
:10117000600A00EE890ADFF8D40780ED000ADFF884
:10118000F807DFF8C41709680160DFF8BC0790EDC5
:10119000000ADFED7A0A20EE200ABDEEC00A10EE4A
:1011A000100ADFF8D8170880DFF8A00790ED000AD2
:1011B000DFED730AB4EE600AF1EE10FA05DBDFF83A
:1011C0008C07DFF8BC1701600EE0DFF8800790EDB8
:1011D000000ADFED6C0AB4EE600AF1EE10FA03D5F6
:1011E000DFF8680767490160DFF8600790ED000AE3
:1011F000BDEC088BBDE8F18300E100E0D80EFF1FD5
:101200000614FF1F0414FF1F2C04FF1F0814FF1FE8
:10121000080FFF1F1C0FFF1FF00EFF1F6404FF1FAE
:1012200080B5002344F250620021002002F0F8FA59
:10123000002344F250620121002002F0F1FA002361
:1012400044F250620221002002F0EAFA002344F244
:1012500050620321002002F0E3FA01BD38B504001A
:101260000D00012C12DB200000B2FFF7E6F842F27D
:10127000107100B20A1A0021002002F0A8FB42F20D
:1012800010720121002002F0A2FB11E042F2107264
:101290000021002002F09BFB200000B2FFF7CDF8F8
:1012A00042F2107100B20A1A0121002002F08FFBF5
:1012B000012D12DB280000B2FFF7BFF842F21071D7
:1012C00000B20A1A0221002002F081FB42F21072E1
:1012D0000321002002F07BFB11E042F21072022198
:1012E000002002F074FB280000B2FFF7A6F842F2DB
:1012F000107100B20A1A0321002002F068FB31BD10
:1013000080B5012002F044FC4042DFF878160880E6
:10131000022002F03DFCDFF8B4190880012002F041
:101320004DFC022002F04AFC01BD0000100FFF1F1F
:10133000F40EFF1F4FF416500F490968C14202DA3C
:101340000D4942420A600C490968884201DA0A499B
:10135000086078490968C14202DA764942420A6067
:1013600074490968884201DA7249086070470000D0
:10137000280FFF1F140FFF1FF80EFF1F0000C842A9
:1013800001600646006006C6180FFF1FF413FF1F1A
:101390000A14FF1F0914FF1F300FFF1F4404FF1F13
:1013A0002C0FFF1F380FFF1F340FFF1FFA13FF1FF3
:1013B0004804FF1F80B52DED028B02F021FC0321B4
:1013C000282002F05EFDDFF8C0150880DFF8B805C0
:1013D0000088DFF8B815B1F90010401ADFF8A81539
:1013E0000880DFF8A405DFF8A01509880180032133
:1013F000292002F046FDDFF898150880DFF89005F7
:10140000008847F23C61401ADFF8841508805821B3
:10141000012003F0BAF80930DFF8B81808805A2123
:10142000012003F0B2F8DFF8B0180880DFF8A40854
:10143000B0F90000404200EE100AB8EEC00ADFF832
:101440009C0880ED000ADFF84805B0F9000000EEC6
:10145000100AB8EEC00A10EE100A01F003FA41ECCF
:10146000110BB0EE418AF0EE618ADFF81C05B0F98D
:10147000000000EE100AB8EEC00A10EE100A01F0EB
:10148000F1F941EC100BB0EE481AF0EE681A03F0D7
:101490002FF953EC102BDFF84808DFF8481801F05B
:1014A000A3FF01F0D7FADFF840180860DFF824083E
:1014B000B0F9000003F026F9A14ADFF8303801F056
:1014C00093FF01F0C7FADFF828180860DFF820085A
:1014D000D0ED000ADFF8100890ED000A03F02AF9B9
:1014E000DFF81008DFF8101809680160DFF8E80776
:1014F000B0F9000000EE100AB8EEC00ADFF8FC07F1
:1015000080ED000ADFF8F00790ED000ADFED800AB9
:1015100020EE200ABDEEC00A10EE100ADFF8E01738
:10152000088002F087FBDFF8DC170860BDEC028B57
:1015300001BD0000FC0EFF1F700FFF1F400FFF1FBB
:10154000CCDEFFFF5804FF1F5C04FF1F10B5002016
:1015500004000A2C25DA03210D2002F092FCDFF8AA
:10156000A817096811FA80F0DFF89C1708600321BA
:101570002E2002F086FCDFF89017496811FA80F0FF
:10158000DFF88417486003212F2002F07AFCDFF88F
:101590007817C96811FA80F0DFF86C17C860641C0E
:1015A000D7E7DFF8640790ED000AB8EEC00A10EE46
:1015B000100A01F057F9DFF85427DFF8543701F02B
:1015C00013FF03F0D7F8DFF840170860DFF838079B
:1015D00090ED010AB8EEC00A10EE100A01F042F9CF
:1015E000DFF82827DFF8283701F0FEFE03F0C2F805
:1015F000DFF814174860DFF8100790ED030AB8EE23
:10160000C00A10EE100A01F02DF9DFF80027DFF80C
:10161000003701F0E9FE03F0ADF8DFF8EC16C86022
:10162000DFF8E406C068DFF8EC16C968401A00EE7F
:10163000100AB8EEC00ADFF8E006C068DFF8D4167A
:10164000C968401A00EE900AF8EEE00A80EE200A1F
:10165000334880ED000A324890ED000AB5EE400AAA
:10166000F1EE10FA03D82E48DFF8B01601602C48CE
:1016700090ED000ADFED300AB4EE600AF1EE10FAE8
:1016800003DB27485FF07E510160DFF87C060068CD
:10169000DFF880160968401A00EE100AB8EEC00A9A
:1016A000DFF874060068DFF86C160968401A00EE6F
:1016B000900AF8EEE00A80EE200A1A4880ED000A4F
:1016C000184890ED000AB5EE400AF1EE10FA03D882
:1016D0001448DFF848160160124890ED000ADFED6B
:1016E000160AB4EE600AF1EE10FA03DB0D485FF063
:1016F0007E510160DFF8100690ED010AB8EEC00AD5
:10170000DFF81C0680ED000A10BD00004C04FF1F2E
:1017100000009643240FFF1F200FFF1FD00EFF1F56
:10172000640FFF1F680FFF1F480FFF1F440FFF1FAD
:101730004C0FFF1F740FFF1F0100803F0C14FF1F91
:10174000EC51B81E85EBF13FBC04FF1FC004FF1F26
:10175000C404FF1FC804FF1F800FFF1F54E3A59B95
:10176000C420F23FAC04FF1FB004FF1FB404FF1FEE
:10177000B804FF1F2DE9F04182B005000E001700EC
:101780009846089C002F13D5E4B200944346DBB280
:101790007A423100C9B22800C0B203F03FF968A212
:1017A0003100C9B2B5F10A00C0B203F098F912E0F5
:1017B000E4B200944346DBB23A003100C9B22800DB
:1017C000C0B203F02BF95FA23100C9B2B5F10A0033
:1017D000C0B203F084F9BDE8F3810000840FFF1F5D
:1017E0009C04FF1FA004FF1FA404FF1FA804FF1FE9
:1017F0007804FF1F2408FE4380B503F04BF8DFF8A0
:10180000240500883C281EDADFF81C250021002072
:1018100003F065F9DFF814250A21002003F05FF9D1
:10182000DFF80C251421002003F059F9DFF8042516
:101830001E21002003F053F9DFF8FC2428210020AA
:1018400003F04DF978E0DFF8DC040088782817DA37
:10185000DFF8E8240021002003F041F9DFF8E0245C
:101860000A21002003F03BF9DFF8D82414210020DE
:1018700003F035F936A21E21002003F030F95BE0B9
:10188000DFF8A0040088B42816DADFF8BC240021B1
:10189000002003F024F930A20A21002003F01FF9F0
:1018A0002FA21421002003F01AF9DFF8A0241E2132
:1018B000002003F014F93FE0DFF868040088F02806
:1018C00016DADFF88C240021002003F008F926A2A4
:1018D0000A21002003F003F924A21421002003F0C0
:1018E000FEF8DFF870241E21002003F0F8F823E052
:1018F000DFF830040088B0F5967F1DDADFF8582451
:101900000021002003F0EBF8DFF850240A2100202A
:1019100003F0E5F8DFF848241421002003F0DFF895
:10192000DFF840241E21002003F0D9F8DFF88C2CCA
:101930002821002003F0D3F802F048FF01BD000089
:101940002D0000002B0000007C0FFF1F780FFF1FF1
:10195000425F44006804FF1F565F50006C04FF1F85
:10196000565F49003C0FFF1F545F5000545F440016
:101970007004FF1F7404FF1F600FFF1F0014FF1F80
:10198000006006460414FF1FF613FF1F3004FF1FFC
:10199000F813FF1F80B5DFF8D00300210160E14894
:1019A00000883C284FDAC8A2DE480188C9B27820F6
:1019B00003F095F80C2000900423DFF8B00390EDBD
:1019C000000ABDEEC00A10EE102A00215520FFF7D4
:1019D000D1FE0C2000900423E54802680A2155201E
:1019E000FFF7C8FE0C2000900423E24890ED000AA7
:1019F000BDEEC00A10EE102A14215520FFF7BAFEE2
:101A00000C2000900423DC4890ED000ABDEEC00AD3
:101A100010EE102A1E215520FFF7ACFE0C2000907E
:101A20000423B44890ED000ADFF8940BD0ED000ACF
:101A300030EE200ABDEEC00A10EE102A28215520F3
:101A4000FFF798FE37E1B7480088782852DA9EA25F
:101A5000B4480088B0F13C01C9B2782003F03FF8E7
:101A60000C2000900423DFF85C0B02680021552055
:101A700002F0D4FF0C2000900423DFF84C0B90ED13
:101A8000000ABDEEC00A10EE102A0A215520FFF709
:101A900071FE0C2000900423DFF8300B90ED000A5B
:101AA000F2EE040A20EE200ABDEEC00A10EE102A63
:101AB00014215520FFF75EFE0C2000900423DFF870
:101AC000100B90ED000AF2EE040A20EE200ABDEEA3
:101AD000C00A10EE102A1E215520FFF74BFE0C20E5
:101AE00000900623DFF8F00A026828210A20FFF799
:101AF00041FEE0E08B480088B42839DA72A28948B8
:101B00000088B0F17801C9B2782002F0E8FF0C201B
:101B100000900423DFF8C40A02680021552002F077
:101B20007DFF0C2000900423DFF8B40A90ED000A3A
:101B3000F2EE040A20EE200ABDEEC00A10EE102AD2
:101B40000A215520FFF716FE0C2000900423DFF831
:101B5000940A90ED000ADFED5E0A20EE200ABDEE49
:101B6000C00A10EE102A14215520FFF703FEA2E050
:101B70006C480088F02857DA53A26A48008810F1B0
:101B80004C01C9B2782002F0AAFF0C200090042377
:101B9000DFF8540A02680021552002F03FFF0C20B4
:101BA00000900423DFF8440A90ED000ABDEEC00A5D
:101BB00010EE102A0A215520FFF7DCFD0C200090C2
:101BC0000523DFF82C0A90ED000ABDEEC00A10EEE6
:101BD000102A14215520FFF7CDFD0C20009004237E
:101BE000DFF8100A90ED000AF2EE040A20EE200A57
:101BF000BDEEC00A10EE102A1E215520FFF7BAFDD7
:101C00000C2000900423DFF8F00990ED000AF2EEBA
:101C1000040A20EE200ABDEEC00A10EE102A282188
:101C20005520FFF7A7FD46E03E480088B0F5967FB7
:101C300041DA25A23B48008810F11001C9B2782092
:101C400002F04DFF0C2000900423DFF8B00990ED66
:101C5000000ABDEEC00A10EE102A00215520FFF741
:101C600089FD0C2000900423274802680A21552092
:101C7000FFF780FD0C20009004232348C268142144
:101C80005520FFF777FD0C2000900423DFF8700942
:101C900090ED000ABDEEC00A10EE102A1E2155205C
:101CA000FFF768FD0C2000900423174842682821A4
:101CB0005520FFF75FFDDFF84C293221002002F0AC
:101CC0000EFF02F083FD01BD2A0000000614FF1F75
:101CD0000000C842FA13FF1FFC13FF1F040FFF1F71
:101CE000E3A9471ADCA54C40E40EFF1F85EBB13F8A
:101CF000E80EFF1F000FFF1FC40EFF1F080FFF1F7E
:101D0000FE13FF1FD40EFF1F500FFF1F7B14AE47A3
:101D1000E17A743F7C04FF1F8C04FF1FFFEB2F2D23
:101D20006C0FFF1F0214FF1FC48E00004C8E0000BA
:101D3000CC8E0000D48E0000DC8E0000588E000097
:101D4000E48E0000EC8E0000648E0000F48E000033
:101D5000708E0000FC8E0000048F00007C8E00005E
:101D6000888E0000948E00000C0FFF1F3404FF1FAC
:101D70001C04FF1F3C04FF1F4004FF1F80B500220E
:101D800000219A2002F062FF0321872003F014F85B
:101D900000220121292002F059FF0321292003F00C
:101DA0000BF8DFF86408012101605FF4E1310420E1
:101DB00003F038F8282001F05DFF292001F05AFFD8
:101DC0000D2001F057FF2E2001F054FF2F2001F0CD
:101DD00051FFFEF721FB02F0BDFB02F0A4FEDFF88D
:101DE000280800210160C82000F025FD02F044FD14
:101DF000FFF702FD012001F048FE022001F045FE40
:101E0000FFF70EFA00F038FCDFF800080068052143
:101E100001FB00F1012003F02BF9DFF8F417552046
:101E200003F075F900F0CBFCDFF8E817086000F06C
:101E3000CEFCDFF8E4170860DFF8D8070068012857
:101E400001D103F081FA4520FEF7EAFADFF8CC076A
:101E50000078012801D1FEF7F7FA002000F056FCC7
:101E6000DFF8BC170860DFF8B8070068002800F04A
:101E70009F83DFF8AC07006801280BD0C0F09B837C
:101E8000032800F0DB811CD3052800F01082C0F08D
:101E9000EC8190E3DFF88C070088B0F58C7F04DDDF
:101EA000DFF880070021018006E0DFF8780700886E
:101EB0000A30DFF870170880FFF79EFCFFF76AFD15
:101EC00079E3DFF86007008800280CD1DFF85807B5
:101ED00090ED000ADFEDC20A30EE200ADFF8480775
:101EE00080ED000AA5E1DFF83C0700880A280CD144
:101EF000DFF838070068002801D1012000E0002049
:101F0000DFF82817C0B2086093E1DFF818070088EF
:101F100014280CD1DFF8180790ED000ADFEDB00AA5
:101F200030EE200ADFF8080780ED000A81E1DFF8D3
:101F3000F40600881E280CD1DFF8F80690ED000AA0
:101F4000DFEDA70A30EE200ADFF8E80680ED000A90
:101F50006FE1DFF8D0060088282800F06A81DFF8FA
:101F6000C4060088322802D103F0F0F861E1DFF8FE
:101F7000B40600883C280CD1DFF848060068002829
:101F800001D1012000E00020DFF83816C0B208605F
:101F90004FE1DFF89006008846280CD1DFF82806CC
:101FA00090ED000ADFED8E0A30EE200ADFF8180609
:101FB00080ED000A3DE1DFF86C060088502810D162
:101FC000DFF80806006800F04DFCDFF86C26DFF84B
:101FD0006C3601F0DBFA00F03DFDDFF8F01508602B
:101FE00027E1DFF8400600885A2810D1DFF8E00525
:101FF000006800F037FCDFF84026DFF8403601F0DB
:10200000C5FA00F027FDDFF8C815086011E1DFF818
:1020100014060088642800F00C81DFF808060088A8
:102020006E2802D103F092F803E1DFF8F80500888A
:1020300078280CD1DFF8A4050068002801D1012020
:1020400000E00020DFF89415C0B20860F1E0DFF88E
:10205000D4050088822810D1DFF88405006800F0DC
:1020600001FCDFF8D425DFF8D43501F08FFA00F059
:10207000F1FCDFF86C150860DBE0DFF8A8050088EC
:102080008C2810D1DFF85C05006800F0EBFBDFF86E
:10209000B025DFF8B03501F079FA00F0DBFCDFF8AD
:1020A00044150860C5E0DFF87C050088962810D14B
:1020B000DFF89405006800F0D5FBDFF87C25DFF839
:1020C0007C3501F063FA00F0C5FCDFF87C15086090
:1020D000AFE0DFF850050088A02800F0AA80DFF804
:1020E00044050088AA2802D103F030F8A1E0DFF807
:1020F00034050088B4280CD1DFF8EC04006800280F
:1021000001D1012000E00020DFF8DC14C0B208603B
:102110008FE0DFF810050088BE280CD1DFF8CC0472
:1021200090ED000AFAEE040A30EE200ADFF8BC0453
:1021300080ED000A7DE0DFF8EC040088C8280CD1AF
:10214000DFF8AC0490ED000ADFEDBE0A30EE200AA5
:10215000DFF89C0480ED000A6BE0DFF8C80400881B
:10216000D22810D1DFF88C04006800F07BFBDFF888
:10217000C824DFF8C83401F009FA00F06BFCDFF87E
:102180007414086055E0DFF89C040088DC2810D146
:10219000DFF86404006800F065FBDFF89C24DFF8DA
:1021A0009C3401F0F3F900F055FCDFF84C140860A2
:1021B0003FE0DFF870040088E62802D102F0C6FF95
:1021C00037E0DFF860040088F02813D1DFF82C0432
:1021D000006800F047FBDFF86024DFF8603401E0BE
:1021E000000048C201F0D2F900F034FCDFF80C1412
:1021F00008601EE0DFF82C040088FA2819D0DFF808
:1022000024040088B0F5827F13D0DFF8180400881A
:10221000B0F5877F0DD0DFF80C040088B0F58C7F17
:1022200007D0DFF800040088B0F5917F01D102F0FB
:102230008DFFFFF7E1FAFFF7ADFBBCE1DFF8E40348
:102240000088002805D1DFF8DC034FF4917101808C
:1022500006E0DFF8D00300880A38DFF8C8130880EA
:10226000FFF7CAFAFFF796FBA5E1DFF8B0030021FC
:102270000170DFF8D80300210170DFF8D4030021DA
:102280000180DFF8D00301210160DFF8CC030021D9
:102290000170DFF8C8030078002801D1012000E0B8
:1022A0000020DFF8B8130870FFF7A6FA83E1DFF823
:1022B00074030088002810D1DFF86C03006800F078
:1022C000D1FADFF89C23DFF89C3301F05FF900F0CE
:1022D000C1FBDFF85413086065E1DFF848030088AC
:1022E0000A280CD1DFF844030068002801D101203E
:1022F00000E00020DFF83413C0B2086053E1DFF8DB
:1023000024030088142810D1DFF82403006800F0AB
:10231000A9FADFF84C23DFF84C3301F037F900F06D
:1023200099FBDFF80C1308603DE1DFF8F802008844
:102330001E280FD1DFF8FC02006800F093FADFF8E6
:102340002823DFF8283301F021F900F083FBB94995
:10235000086028E1B3480088282800F02481B148AB
:102360000088322802D102F0F1FE1CE1AD4800885D
:102370003C280AD193480068002801D1012000E0E0
:1023800000209049C0B208600DE1A64800884628A8
:102390000AD18D4890ED000AF1EE040A30EE200AD1
:1023A000894880ED000AFEE09E48008850280CD144
:1023B0008648006800F056FA9F4AAD4B01F0E6F8F7
:1023C00000F048FB81490860EDE0964800885A28F3
:1023D0000CD17F48006800F045FA974AA44B01F001
:1023E000D5F800F037FB7A490860DCE08D480088BA
:1023F000642800F0D8808B4800886E2802D102F053
:10240000A5FED0E08748008878280AD17348006884
:10241000002801D1012000E000207049C0B208600E
:10242000C1E08048008882280ED16D48006800F025
:1024300019FA814A8E4B01F0A9F800F00BFB6849AC
:102440000860B0E00000C8C2764800888C280CD133
:102450006448006800F006FA794A864B01F096F865
:1024600000F0F8FA5F4908609DE06E480088962801
:102470000CD17548006800F0F5F96F4A7C4B01F00B
:1024800085F800F0E7FA704908608CE0654800883C
:10249000A02800F0888063480088AA2802D102F0B2
:1024A00055FE80E05F480088B4280AD14E48006895
:1024B000002801D1012000E000204B49C0B2086093
:1024C00071E058480088BE280AD1484890ED000ABB
:1024D000F2EE040A30EE200A444880ED000A62E081
:1024E00050480088C8280AD1414890ED000ADFED25
:1024F000390A30EE200A3E4880ED000A53E0494890
:102500000088D2280CD13B48006800F0ABF94A4A59
:10251000574B01F03BF800F09DFA3649086042E065
:1025200040480088DC280CD13348006800F09AF954
:10253000414A4F4B01F02AF800F08CFA2E4908600E
:1025400031E038480088E62802D102F0FFFD2AE099
:1025500034480088F0280CD12848006800F082F93F
:10256000354A434B01F012F800F074FA2349086031
:1025700019E02C480088FA2815D02A480088B0F5C0
:10258000827F10D027480088B0F5877F0BD0254880
:102590000088B0F58C7F06D022480088B0F5917F86
:1025A00001D102F0D3FDFFF727F9FFF7F3F902E0BD
:1025B000052000F040F9FFF7EDF947E4A08E000098
:1025C0002C04FF1F5004FF1F4404FF1F4804FF1F7B
:1025D0004C04FF1F0000C842400FFF1F5404FF1FA0
:1025E0005804FF1F5C04FF1F6404FF1F6804FF1FE3
:1025F0007004FF1F7404FF1F6C04FF1F7804FF1F8B
:10260000600FFF1FAC8E00002408FE43A013FF1FC5
:1026100035050000DC0EFF1FE00EFF1F0C14FF1F2E
:10262000D80EFF1F0214FF1F3404FF1F1C04FF1FDE
:102630003C04FF1F4004FF1F9A9999999999B9BFCB
:102640007B14AE47E17A84BF6004FF1F0B14FF1FA9
:10265000F413FF1F4400FE430A14FF1F2804FF1F4A
:10266000645DDC460300494024D6E2530000494043
:102670009999B93FE17A843F80B50022002130204A
:1026800002F0E4FA0321302002F096FB0022002140
:10269000312002F0DBFA0321312002F08DFB002211
:1026A0000021342002F0D2FA0321342002F084FB0E
:1026B00000220021352002F0C9FA0321352002F062
:1026C0007BFB00220021362002F0C0FA03213620D5
:1026D00002F072FB00220021372002F0B7FA03213A
:1026E000372002F069FB00220021102002F0AEFA30
:1026F0000321102002F060FB00220021112002F0D3
:10270000A5FA0321112002F057FB01BD0100C9B257
:10271000002902D032480122027031480078002896
:1027200034D03048006800280FD02F4800680028B7
:102730000BD02E480068002807D02D4800680028DC
:1027400003D02C480068002820D1254800220270C0
:1027500024480068002801D101202FE022480068A9
:10276000002801D1022029E020480068002801D17A
:10277000032023E01E480068002801D104201DE04A
:102780001C480068002818D1052017E0154800688B
:10279000012812D11448006801280ED1134800689E
:1027A00001280AD112480068012806D111480068A2
:1027B000012802D10A4801220270002070470E4809
:1027C0000068002801D1002000E0012070470B487C
:1027D0000068002801D1022000E0032070470000BB
:1027E0001804FF1F440AFE43400AFE43500AFE43FA
:1027F000580AFE435C0AFE434402FE434002FE4385
:1028000010B50400002C15D0B4F1807F03D329212A
:102810000F4802F0A8FE0F48002101600E48046036
:102820000E48002101600B4805210160094800683D
:10283000C003FBD510BD10B504002000441E0028C5
:1028400004D007480068FFF7DBFFF6E710BD000083
:10285000AC8B000010E000E014E000E018E000E0C5
:102860009813FF1F5FF0FF0C1CEAD05114BF6145A5
:1028700006E0C110400721F0E04101F160517047CE
:1028800079B900F0004100020AD0B0FA80FC00FAE9
:102890000CF001F16051A1EB0C5101EBD02140058E
:1028A000704741020CBF40F4E0016FF000010020CE
:1028B000704750F8041B61B150F8042BD30744BF94
:1028C000A9F101039A18002342F8043B091FFAD129
:1028D000EFE7704770B44FF0004591EA030F44BF33
:1028E0006B4000F05DBE00BF841A71EB030604D29A
:1028F0006E40001BB141121973414FF4001C1CEBD8
:10290000410F34BF7CEB430684E00C0DA4EB13565F
:10291000362E7DDC012E43DC45EAC32343EA5253C5
:1029200012BFD20292025B08240545EAC12141EAA6
:102930005051D2EBC020994125D407D1B0FA80F68E
:1029400010FA06F164D00020203608E0B1FA81F6D2
:10295000B140C6F1200220FA02F21143B0404FEA22
:10296000F474B4EB465434F001064FEA74040AD808
:10297000D6F50016760D04F00044F04061FA06F238
:102980005040F1404840C00A40EA415021F0004127
:1029900028BF5FEA500550F1000044EBD12137E039
:1029A00045EAC323DB0A45EAC121C90AB6F120057D
:1029B0000EDD42EA0242120CC5F1200603FA06F6C9
:1029C000EB4042EA06056D42984161F100010DE0DD
:1029D00062FA06F5F240554063FA06FC82EA0C0200
:1029E000F3405A406D42904161EB030111F4801FA6
:1029F00005D1641E620502D06D004041494121F4B9
:102A00008011430875F1004350F1000041EB04517F
:102A100070BC70471CEB410F15D223F0004352EA03
:102A200043060BD04FEA4C0CBCEB410F04D80C0D05
:102A3000661E342EB7DDEBE7801A994150EA410655
:102A400008BF0021E4E708BF1CEB430F28BF6FF06D
:102A50000001DDE74FEAF17CBCF1E04C2CBFBCF596
:102A6000001F11E05FEA4C0C34BFBCF17F5F2EE029
:102A70005FEA9C0C4FEA0C1C4FEA3C0CC10071F160
:102A800000414CEB50707047C90241EA5051C002FE
:102A900018BF41F0010141F000414FEA6C50C0F114
:102AA0000900212810D240EACC7CCCF1200C11FA8C
:102AB0000CF070F10040CCF1200C21FA0CF00CF07D
:102AC000004C40EB0C0070474FEACC707047490057
:102AD00011F5001F04D84FEACC10FF30C005704735
:102AE000C8177047443A5C455341545C667265654B
:102AF0007363616C655C626567696E5C4E45575FC8
:102B0000372E3720D4DA372E36C9CFC9D4BCD3D329
:102B1000C5BBAF5C436869705C7372635C4D4B36D8
:102B2000305F6164632E63002DE9F8490FB42DED29
:102B3000088B86B040F2FF710F989DED100B8DED64
:102B4000040BC0F30A50884208D10F9800270003F5
:102B500005BF0E9800280224012412E0012807DA9C
:102B60000EA802F093FD012802DB0027002408E0F4
:102B70000F9A40F2FE3161F31E520F92471A4FF046
:102B8000FF34002104A802F0A2FD1A9E05460EB1F2
:102B90000020308035B9DDE910230020002102F04B
:102BA000D5FD12D0002C13D53FB2012F15D1DDE990
:102BB0000E230020DFF8881302F0C8FD05D0012D98
:102BC0000BD1DE4902F0C2FD3ED106B0CC49E6E1B0
:102BD000022C04D1DDE90E01E0E1012D6FDB022DB5
:102BE00008BFDDE9100100F0D981012C2AD10F982E
:102BF0000028119806D4002854BF9FEDD40B9FEDF8
:102C0000D50BC9E100280ED455B94FF0FF3104A807
:102C100002F05DFD002848BF9FEDD00B00F1BC81A4
:102C20009FEDCA0BB8E155B94FF0FF3104A802F08F
:102C30004EFD002848BF9FEDB30B00F1AD819FED25
:102C4000C50BA9E1012D11D111983FB2002806D47E
:102C5000012FACBF9FEDBD0B9FEDBE0B9CE1012F83
:102C6000ACBF9FEDBC0B9FEDB90B95E1119800280F
:102C700010D465B94FF0FF3104A802F028FD0028F8
:102C800042BF0F9800289FED9F0B00F185819FEDBB
:102C9000B10B81E102F06AFD2221016065B94FF0BC
:102CA000FF3104A802F013FD002842BF0F9800284E
:102CB0009FEDAA0B00F170819FEDA40B6CE10F98C2
:102CC000002848BF002D0BD502F050FD21210160E6
:102CD00006B04FF0FF30BDEC088B6FF0004160E1B3
:102CE000DDE90E010022002302F046FD38BF00247A
:102CF00009D381F00041CDE90E014FF0FF3104A866
:102D000002F0E5FC0446012F13D1DDE90E017F4AF4
:102D10007F4B02F049FD0CD2DDE90E2300259FED2B
:102D20007D8B00204FF0804100F05EFBCDE90E016D
:102D30001CE0DDE90E239FED798B0020794900F03E
:102D400053FB53EC182B00F021FC01F013FDA0F114
:102D50002005284601F0D6FC0022734B00F044FB0E
:102D600053EC182B00F012FC41EC180B0FF258201A
:102D700000EB4518DDE90E0153EC182BFFF7AAFD17
:102D8000DDE90E2341EC190B51EC180B00F0FEFBB2
:102D900002460B4651EC190B02F01EFD41EC1A0BDA
:102DA00053EC1A2B00F020FB41EC1B0B8DED0E9B1E
:102DB00002F036FE53EC1B2B00F016FBDDE90E2370
:102DC000FFF788FD05468B4600204D4953EC182B34
:102DD000FFF780FD00224FF0804300F005FB2A46FC
:102DE0005B4600F0D3FB53EC1A2B00F0FDFADDE953
:102DF0000E2300F0CBFB41EC180B4C4A4C4B02F07D
:102E0000EBFCCDE90401384601F07CFC41EC190BE8
:102E1000D8E9000153EC192B00F0B8FBDDE90423DD
:102E200000F0B4FBCDE90401DDE9102300F0DCFA89
:102E3000CDE9020100223F4B02F0B6FCC0F09280C7
:102E400001223D4B02F098FC40F2908000220023CA
:102E500002F0AAFCDDE9022339BF00203749002037
:102E6000374900F093FB01F085FC0546DDE91001D0
:102E700053EC182B00F0B8FACDE90201D8E902238F
:102E8000D8E904019FED2F8B00F080FBDDE91023D2
:102E900000F0AAFA53EC182B00F0A6FADDE90223A1
:102EA00000F074FBCDE90201D8E9002351EC190BC5
:102EB00000F06CFBDDE9102300F096FA80460F4627
:102EC000284601F01FFC02460B4640463946FFF7F4
:102ED00001FD53EC182B00F087FADDE9022300F026
:102EE00055FBCDE902010EB1358000250095002289
:102EF000034B02A802F0ECFDA0B3012836D041E05C
:102F00000000F03F0000000000000080CD3B7F6625
:102F10009EA0E63F000000000000F03F000000001F
:102F20000000E03F000050400000903FEF39FAFE03
:102F3000422EE63F0000E0C00000E0400000E0BF9D
:102F40000000E03FEF39FAFE422EE63F00000000AD
:102F50000000F07F00000000000000000000000002
:102F60000000F0FF0020CDE9020007E00020014949
:102F700002E000BF0000F07FCDE9020102F0F6FBA5
:102F800022210160002C1DBFDDE9020181F000411A
:102F900041EC100B9DED020B51EC100B06B0BDEC9B
:102FA000088B05B0BDE8F08980B50020009053EC97
:102FB000112B51EC100BFFF7B7FD41EC100B01BDCD
:102FC0000000000000000000000000000000F0BF52
:102FD00000000000000000800000000000000080F1
:102FE0000000000000000000000000C05294EEBF8E
:102FF00000000048204E51BE000000F86467BCBCD1
:103000000000000000000000000000208133EDBF40
:1030100000000080B3DB14BE000000506706A3BCB4
:103020000000000000000000000000D0E9DCEBBF61
:1030300000000008C39259BE00000080B0D3B8BCA5
:10304000000000000000000000000070F98FEABFDF
:10305000000000C0A51028BE000000E8BFC0B0BC42
:10306000000000000000000000000070284CE9BFD4
:1030700000000060134B42BE000000C03D20B8BC01
:10308000000000000000000000000050FA10E8BF3F
:10309000000000C05FF62BBE000000905C71A7BC72
:1030A000000000000000000000000020FCDDE6BF82
:1030B000000000C0F8F154BE00000018E9F6B9BCE9
:1030C0000000000000000000000000D0C3B2E5BF17
:1030D00000000070E43254BE00000050DB06B4BCB7
:1030E000000000000000000000000010EF8EE4BFB0
:1030F00000000020F36252BE000000C02A879ABC84
:103100000000000000000000000000B02272E3BFD9
:10311000000000F0E8E056BE00000028352DBDBCE0
:103120000000000000000000000000000A5CE2BF98
:10313000000000B0FA8E41BE00000040AE6FBDBC82
:10314000000000000000000000000000564CE1BF3D
:10315000000000F015CD5FBE00000000141C90BC04
:10316000000000000000000000000040BD42E0BF81
:1031700000000030F93457BE000000E06C1E93BC24
:103180000000000000000000000000E0F57DDEBF50
:10319000000000B08A535EBE00000080DA77AABC4F
:1031A0000000000000000000000000C09D81DCBFA6
:1031B00000000000FFA226BE0000006057E2B0BC85
:1031C000000000000000000000000060F98FDABF7E
:1031D000000000580A8151BE000000F05F60B8BCDA
:1031E00000000000000000000000000098A8D8BF08
:1031F000000000607A7F45BE000000D05433A3BCBD
:103200000000000000000000000000600FCBD6BFEF
:10321000000000D091CB40BE000000406D1BA0BC60
:103220000000000000000000000000A0FBF6D4BF7A
:1032300000000098C5CE52BE000000003A397EBCA6
:103240000000000000000000000000E0FE2BD3BFE3
:103250000000004073872BBE00000000926879BC1C
:10326000000000000000000000000040C069D1BF65
:1032700000000058F16353BE00000080438D7CBC09
:10328000000000000000000000000080D85FCFBFF9
:10329000000000181F8354BE000000B03F42A2BCD3
:1032A00000000000000000000000008067FCCBBFB1
:1032B00000000060FAFF53BE00000050E00DB8BCF3
:1032C00000000000000000000000000098A8C8BF37
:1032D000000000607A7F35BE000000C0543393BC0C
:1032E000000000000000000000000000DC63C5BF1B
:1032F00000000058D6FF54BE00000000396490BCA6
:103300000000000000000000000000C0AD2DC2BFA2
:1033100000000080A45915BE000000E0484BABBC83
:103320000000000000000000000000801A0BBEBF7B
:1033300000000050BF3C5ABE000000A0B364B6BC01
:1033400000000000000000000000008004D6B7BFAD
:1033500000000040BBCF36BE0000008076CEA8BC87
:1033600000000000000000000000008032BBB1BF80
:10337000000000402A0043BE00000028C60CBDBC6F
:103380000000000000000000000000009473A7BFD0
:10339000000000182B3B59BE000000C0E55DA5BC35
:1033A000000000000000000000000000EE4397BF96
:1033B000000000A0E6C340BE00000020958DB5BC13
:1033C000000000000000000000000000000000807D
:1033D00000000000000000800000000000000080ED
:1033E0000000000000000000B0B581EA030C0CF002
:1033F000004C40F2FF7515EA11541DBF15EA135732
:10340000AC42AF4239E0E41923EA455343F4801358
:10341000C90241F0004141EA505EC7021100A7FB1A
:10342000020200284FF00000EEFB01204FF00001E7
:10343000E3FB072118BF42F0010240180021494177
:10344000E3FB0E01A4F580640F0302D25200404159
:10345000494154F101046CDD470872F1004250F11A
:10346000000051EB0451A1F580115CBF41EA0C0151
:10347000B0BD4CEA05510020B0BD05EA1357AC427F
:1034800014BFAF4241E050EA410E1CBF52EA430E66
:1034900002E061460020B0BD24423C441BD15FEAFB
:1034A000070EF6D0090302BF01460020AEF1140E4C
:1034B000B1FA81F7AEEB070401FA07FE0C37C7F14A
:1034C000200100FA07F7C8404EEA000E23EA4553F0
:1034D00043F48013A2E733F00043B3FA83F704BF49
:1034E000B2FA82FE77440B3FE41BB7F1200E2FBFE8
:1034F00002FA0EF3BB40C7F1200E22FA0EFE38BFCF
:1035000043EA0E03BA40641C82E750EA410E14BF3E
:1035100052EA430E6FF000014FF4001717EB430F10
:103520008ABF194617EB410FB5E74CEA0551002059
:10353000B0BDD4F10104B4F120070FDAC4F12007C3
:10354000520828BF42F0010210FA07F501FA07F706
:10355000E1BF2A43E0403843E1400FE0352C98DCDE
:10356000C7F1200452EA400220FA07F218BF42F0E5
:10357000010231FA07F0A1400A43002172F1004232
:1035800050F1000051EB0C01B0BD000070B44FF0E1
:10359000004591EA030C44BF6B40FFF7A5B900BF9B
:1035A000841A71EB030603D2001BB1411219734157
:1035B0004FF4001C1CEB410F34BF7CEB430443E091
:1035C0000C0DA4EB1356352E50DC45EAC323DB0A61
:1035D00045EAC121C912B6F120050DDD63FA05F6F1
:1035E000EB4086EA0305124218BF45F00105C018FA
:1035F00051F100010CD213E062FA06F5F240554099
:10360000F3415A40B340F3405A408018594107D320
:1036100049085FEA30005FEA350528BF45F001053B
:1036200001F58011420875F1004250F1000041EBB4
:10363000045170BC4FF4001C1CEB410F38BF7047A5
:103640000020090D090570471CEB410F10D252EA0A
:1036500043060BD0BCEB410F05D80C0DAB43661EE7
:10366000342EB5DD02E0AB438018594170BC704781
:1036700070BC704738B504000D0064B2002C06D051
:10368000022C69D04CD3032C00F08280C7E0DFF815
:103690005805006850F08070DFF84C1508606DB276
:1036A000002D0BD0022D15D00ED3042D1ED017D314
:1036B000062D27D020D3072D2AD02FE04FF480618C
:1036C000412001F057FB2AE04FF48061422001F0D5
:1036D00051FB24E04FF48061432001F04BFB1EE0DE
:1036E0004FF48061442001F045FB18E04FF4407135
:1036F000072001F03FFB12E04FF48061652001F0EC
:1037000039FB0CE04FF48061662001F033FB06E0EA
:103710004FF48061672001F02DFB00E07FE07EE048
:10372000DFF8C404006850F00070DFF8BC140860D3
:103730006DB2002D02D0012D06D00BE04FF4407188
:103740000C2001F017FB06E04FF440710D2001F052
:1037500011FB00E063E062E0DFF89004006850F0E5
:103760008070DFF8881408606DB2002D02D0012D42
:1037700006D00BE04FF440710A2001F0FBFA06E09E
:103780004FF440710B2001F0F5FA00E047E046E00D
:10379000DFF85804006850F00070DFF8501408603B
:1037A0006DB2002D0BD0022D15D00ED3042D1ED0DE
:1037B00017D3062D27D020D3072D2AD02EE04FF483
:1037C000C061852001F0D6FA28E04FF4C061862060
:1037D00001F0D0FA22E04FF4C061872001F0CAFA6C
:1037E0001CE04FF4C061882001F0C4FA16E04FF4E9
:1037F000C061892001F0BEFA10E04FF4C0618A2058
:1038000001F0B8FA0AE04FF4C0618B2001F0B2FA7F
:1038100004E04FF4C0618C2001F0ACFAFFE731BD49
:103820002DE9F84F04000D0016001F0064B2002CB3
:1038300011D064B2012C02D064B2022C02D16DB25C
:10384000022D08DB64B2032C05D040F28511DFF8AD
:10385000A00301F088FE290049B2200040B2FFF722
:1038600009FFDFF8900300684FF47A7148438046FF
:103870005FEA1840B0FBF6F08146002082461FFA4E
:1038800089F959FA0AF0012802DB1AF1010AF6E770
:103890005FFA8AFABAF1080F05DB4FF4D071DFF84E
:1038A000500301F060FE38FA0AF0B0FBF6F08146F2
:1038B00064B2DFF844031FFA89F940F8249064B237
:1038C000002C05D0022C1BD00ED3032C24D02FE0CB
:1038D0001FFA89F919F1010000FB07F042F210719B
:1038E000B0FBF1F0834623E01FFA89F919F10100DA
:1038F00000FB07F042F21071B0FBF1F0834617E0D5
:103900001FFA89F919F1010000FB07F042F210716A
:10391000B0FBF1F083460BE01FFA89F919F10100C1
:1039200000FB07F042F21071B0FBF1F08346FFE7B5
:103930006DB264B2DFF8C40250F8240010EBC50089
:103940006DB264B2DFF8B41251F8241011EBC50166
:10395000C96831F00401C1606DB264B2DFF89C0245
:1039600050F8240010EBC5002821C16064B2DFF8D4
:103970008C0250F824005FFA8AFA1AF0070151F01D
:103980000801016064B2DFF8740250F824001FFAE5
:1039900089F9C0F8089064B2DFF8600250F824009A
:1039A0000021C1646DB264B2DFF8500250F8240007
:1039B00010EBC5001FFA8BFBC0F810B064B2DFF843
:1039C0003C0250F8240000214160BDE8F18F2DE950
:1039D000F04104000D0016005FF0000864B2002CF6
:1039E00011D064B2012C02D064B2022C02D16DB2AB
:1039F000022D08DB64B2032C05D04FF4F371DFF81D
:103A0000F00101F0B0FD64B2DFF8EC0150F82400E1
:103A1000804664B2002C05D0022C17D00CD3032CA6
:103A20001ED027E018F1010000FB06F042F21071F1
:103A3000B0FBF1F007001DE018F1010000FB06F0FB
:103A400042F21071B0FBF1F0070013E018F1010031
:103A500000FB06F042F21071B0FBF1F0070009E044
:103A600018F1010000FB06F042F21071B0FBF1F01A
:103A70000700FFE76DB264B2DFF8800150F8240060
:103A800010EBC5000761BDE8F08110B5040064B219
:103A9000012C07D064B2022C04D04FF43171544889
:103AA00001F061FD64B22000012802D0022811D08B
:103AB00021E04D48006850F000704B4908604FF419
:103AC000E0610C2001F056F94FF4E0610D2001F0A7
:103AD00051F915E04548006850F08070434908608E
:103AE0004FF4C061322001F045F94FF4C06133203A
:103AF00001F040F904E04FF43F713D4801F033FD1F
:103B000064B23E4850F82400406D50F0040064B2A6
:103B10003A4951F82410486564B2384850F82400F6
:103B2000D0F8800050F0080064B2344951F82410F5
:103B3000C1F8800064B2314850F824000021C1640B
:103B400064B22E4850F824004FF6FF71816064B2D1
:103B50002A4850F82400D0F8800050F0010064B2E8
:103B6000264951F82410C1F8800064B2234850F867
:103B70002400406D50F0010064B2204951F8241037
:103B8000486564B21D4850F824000021416010BD12
:103B900038B5040064B2012C07D064B2022C04D002
:103BA00040F21931124801F0DEFC64B2134850F8BB
:103BB000240040680500280000B232BD10B50400A2
:103BC00064B2012C07D064B2022C04D040F2273139
:103BD000074801F0C8FC64B2084850F824000021EE
:103BE000416010BD000000003C8004403080044073
:103BF0003C8C0000A013FF1F880FFF1FDC0BFF1F72
:103C00001648007850F08000144908701448006885
:103C100050F0010012490860124800210160134869
:103C20005FF0FF3101601048232101600D48012140
:103C3000016070470B490968090603D55FF0FF3141
:103C4000080009E00A4900220A6009490968490197
:103C50003222B1FBF2F1080070470000005006402C
:103C60003880044000000440040004400800044080
:103C70000C00044038B5040064B26511EDB2002DAB
:103C800002D0012D11D021E0A348006850F000605F
:103C9000A1490860A148006830F090009F49086081
:103CA0009E489E490968016014E09D48006850F0F4
:103CB00000609B4908609948006830F410409749BB
:103CC0000860964895490968016003E033219548EA
:103CD00001F049FC64B22000002800F0898001282E
:103CE00000F08680032800F0838008284ED0092841
:103CF00051D00A2854D00B2857D00C285AD00D2860
:103D00005DD00E2860D00F2863D0102870D0112805
:103D100064D0122867D013286AD0142868D01A28D3
:103D200066D01D2864D01E2862D0202861D02128AA
:103D30005FD023285DD024285CD025285FD026289A
:103D400062D0272865D0282868D029286BD02A2857
:103D50006ED02B2871D02C2874D02D2877D02E2807
:103D60007AD02F287DD0302800F0858031287DD072
:103D7000322800F0808033287DD034287BD03A2848
:103D800079D03D2877D03E2875D075E000212020DD
:103D900000F0F0FF74E00021212000F0EBFF6FE065
:103DA0000021072000F0E6FF6AE00021082000F073
:103DB000E1FF65E00021222000F0DCFF60E000214F
:103DC000232000F0D7FF5BE00021402000F0D2FF6D
:103DD00056E00021412000F0CDFF51E00021982065
:103DE00000F0C8FF4CE00021992000F0C3FF47E03D
:103DF00046E045E00021802000F0BCFF40E00021CB
:103E0000812000F0B7FF3BE00021822000F0B2FFEC
:103E100036E00021832000F0ADFF31E000212020BA
:103E200000F0A8FF2CE00021212000F0A3FF27E0F4
:103E30000021242000F09EFF22E00021252000F038
:103E400099FF1DE00021262000F094FF18E00021DA
:103E5000272000F08FFF13E000212A2000F08AFFC6
:103E60000EE000212B2000F085FF09E00021112049
:103E700000F080FF04E003E09A212A4801F073FB80
:103E800031BDF8B504000D0064B2661100272900A9
:103E900049B2200040B200F01CF876B2224850F837
:103EA000260000680006F8D576B21F4850F82600B4
:103EB0000069070076B21C4850F82600006830F010
:103EC000800076B2184951F826100860380080B298
:103ED000F2BD30B440B2421110F01F0352B2124C86
:103EE00054F8224049B28D0015F00C0555F05005EC
:103EF000A56052B20C4C54F822400425E56052B241
:103F0000094C54F82240DBB213F01F0555F0400570
:103F1000256030BC704700003C800440188004409D
:103F200030800440E42A0000CC04FF1F80B500224A
:103F30000121812000F08AFE00220121802000F072
:103F400085FEDFF8A0050021016000BFDFF89805BD
:103F50000121016000BF00BF00BF00BF00BF00BF64
:103F600000BF00BF00BF00BF00BF00BF00BF00BF59
:103F700000BF00BF00BFDFF86C050121016000BF7A
:103F800000BF00BF00BF00BF00BF00BF00BF00BF39
:103F900000BF00BF00BF00BF00BF00BF00BF00BF29
:103FA00000BF00BF00BF00BF00BF00BF00BF00BF19
:103FB00000BF00BF00BF00BF00BF00BF00BF00BF09
:103FC00000BF00BF00BF00BF00BF00BF00BF00BFF9
:103FD00000BF00BF00BF00BF00BF00BF00BF00BFE9
:103FE00000BF00BF00BF00BF00BF00BFDFF8F80484
:103FF0000021016000BF00BF00BF00BF00BF00BFC5
:1040000000BF00BF00BF00BF00BF00BF00BF00BFB8
:1040100000BF00BF00BF00BF00BF00BF00BF00BFA8
:1040200000BF00BF00BF00BF00BF00BF00BF00BF98
:1040300000BF00BF00BF00BF00BF00BF00BF00BF88
:1040400000BF00BF00BF00BF00BF00BF00BF00BF78
:1040500000BF00BF00BF00BF00BF00BF00BF00BF68
:1040600000BFDFF880040021016001BD80B500229F
:104070000121812000F0EAFD00220121802000F0D2
:10408000E5FDDFF860040021016000BF00BF00BF54
:1040900000BF00BF00BF00BF00BF00BF00BF00BF28
:1040A00000BF00BF00BF00BF00BF00BFDFF8380483
:1040B0000021016000BF00BF00BF00BF00BF00BF04
:1040C00000BF00BF00BF00BF00BF00BF00BF00BFF8
:1040D00000BF00BF00BFDFF80C040121016000BF7A
:1040E00000BF00BF00BF00BF00BF00BF00BF00BFD8
:1040F00000BF00BF00BF00BF00BF00BF00BF00BFC8
:1041000000BF00BF00BF00BF00BF00BF00BF00BFB7
:1041100000BF00BF00BF00BF00BF00BF00BF00BFA7
:1041200000BF00BF00BF00BF00BF00BF00BF00BF97
:1041300000BF00BF00BF00BF00BF00BF00BF00BF87
:1041400000BF00BF00BF00BF00BF00BFE6480121A5
:10415000016000BF00BF00BF00BF00BF00BF00BFC5
:1041600000BF00BF00BF00BF00BF00BF00BF00BF57
:1041700000BF00BF00BF00BF00BF00BF00BF00BF47
:1041800000BF00BF00BF00BF00BF00BF00BF00BF37
:1041900000BF00BF00BF00BF00BF00BF00BF00BF27
:1041A00000BF00BF00BF00BF00BF00BF00BF00BF17
:1041B00000BF00BF00BF00BF00BF00BF00BF00BF07
:1041C000C8480021016001BD38B50400002201216A
:1041D000812000F03BFD00220121802000F036FD0F
:1041E00000BF00200500EDB2082D5EDABD480021B9
:1041F0000160E4B214FA05F0000603D5BA480121C3
:10420000016002E0B8480021016000BF00BF00BFAC
:1042100000BF00BF00BF00BF00BF00BF00BF00BFA6
:1042200000BF00BF00BF00BF00BF00BFAD480121FD
:10423000016000BF00BF00BF00BF00BF00BF00BFE4
:1042400000BF00BF00BF00BF00BF00BF00BF00BF76
:1042500000BF00BF00BF00BF00BF00BF00BF00BF66
:1042600000BF00BF00BF00BF00BF00BF00BF00BF56
:1042700000BF00BF00BF00BF00BF00BF00BF00BF46
:1042800000BF00BF00BF00BF00BF00BF00BF00BF36
:1042900000BF00BF00BF00BF00BF00BF00BF00BF26
:1042A0009048002101606D1C9DE700BF00BF00BF6A
:1042B00000BF00BF00BF00BF00BF00BF00BF00BF06
:1042C00000BF00BF00BF00BF00BF00BF00BF00BFF6
:1042D00000BF00BF00BF00BF00BF00BF00BF00BFE6
:1042E00000BF00BF00BF00BF00BF00BF00BF00BFD6
:1042F00000BF00BF00BF00BF00BF00BF00BF00BFC6
:1043000000BF00BF00BF00BF00BF00BF00BF00BFB5
:1043100000BF00BF00BF00BF73480121016000BFA4
:1043200000BF00BF00BF00BF00BF00BF00BF00BF95
:1043300000BF00BF00BF00BF00BF00BF00BF00BF85
:1043400068480121016000BF00BF00BF00BF00BF7F
:1043500000BF00BF00BF00BF00BF00BF00BF00BF65
:1043600000BF00BF00BF00BF00BF00BF00BF00BF55
:1043700000BF00BF00BF00BF00BF00BF00BF00BF45
:1043800000BF00BF00BF00BF00BF00BF00BF00BF35
:1043900000BF00BF00BF00BF00BF00BF00BF00BF25
:1043A00000BF00BF00BF00BF00BF00BF00BF00BF15
:1043B00000BF00BF4B480021016031BD38B500226D
:1043C0000021802000F042FC00220121812000F029
:1043D0003DFC0020050043480021016000BF00BFF4
:1043E00000BF00BF00BF00BF00BF00BF00BF00BFD5
:1043F00000BF00BF00BF00BF00BF00BF00BF002064
:104400000400E4B2082C67DA00BF00BF00BF00BFA1
:1044100000BF00BF00BF00BF00BF00BF00BF00BFA4
:1044200000BF00BF00BF00BF00BF2E4800210160D9
:1044300000BF00BF00BF00BF00BF00BF00BF00BF84
:1044400000BF00BF00BF00BF00BF00BF00BF00BF74
:1044500000BF00BF00BF00BF00BF00BF00BF00BF64
:1044600000BF00BF00BF00BF00BF00BF00BF00BF54
:1044700000BF00BF00BF00BF00BF00BF00BF00BF44
:1044800000BF00BF00BF00BF00BF00BF00BF00BF34
:1044900000BF00BF00BF00BF00BF00BF00BF11488A
:1044A0000121016000BF00BF00BF00BF00BF00BF0F
:1044B00000BF00BF00BF00BF00BF00BF00BF00BF04
:1044C00000BF00BF00BF6D00DFF884000068002857
:1044D00000D06D1C641C94E7024800210160280094
:1044E000C0B232BD0420FE430020FE4370B504007C
:1044F0000D001600FFF71AFD2000C0B2FFF764FEA2
:104500002800C0B2FFF760FE3000C0B2FFF75CFECB
:10451000FFF7ACFD70BD70B504000D006426FFF719
:1045200005FD2000C0B2FFF74FFE2800C0B2FFF724
:104530004BFEFFF7FBFC601CC0B2FFF745FEFFF728
:104540003DFF0600FFF792FD3000C0B270BD0000D5
:104550000022FE4380B50F222021D220FFF7C6FFA4
:1045600000222121D220FFF7C1FF08222221D220E0
:10457000FFF7BCFF30222321D220FFF7B7FF002234
:104580002421D220FFF7B2FF01BD2DE9F84F04002E
:104590000D0000275FF00008EDB2582D04D129204E
:1045A0008246282083460EE0EDB2592D04D12B20FF
:1045B00082462A20834606E0EDB25A2D03D12D20F3
:1045C00082462C208346002081465FFA89F9E4B2B6
:1045D000A14517D25146C9B2D220FFF79CFF8DF8F2
:1045E00000005946C9B2D220FFF795FF06009DF89A
:1045F0000000000250FA86F0804607FA88F719F1A9
:104600000109E2E7E4B297FBF4F0BDE8F28F0000A5
:1046100038B50FB4DDE9020101F0B9FB0546DDE96B
:10462000000101F0B4FB012DB8BF012830DA019878
:10463000002807D5DDE9000181F00041CDE9000146
:10464000082400E000240398002807D5DDE90201D2
:1046500081F00041CDE9020184F00604DDE90201A8
:10466000DDE9002301F0A0F804D201F0B5F841EC37
:10467000100B29E0002D08D5DDE90001DDE902235A
:1046800001F0AAF841EC100B20E09FED150B1DE0A6
:10469000022808BFDDE9000120D0022D08BFDDE9B6
:1046A00002011BD085420CBF9FED0F0B9FED0C0B41
:1046B000019900294CBF082400240399002948BF10
:1046C00084F00604012801D184F00204224605B0DA
:1046D000BDE8304051EC100B01F07ABB05B030BDA5
:1046E0000000000000000000000000000000F03F9B
:1046F00080B553EC112B51EC100BFFF789FF41EC07
:10470000100B01BD010040F10980F446404200F069
:1047100005F851F000416047010000BF09D0B0FA30
:1047200080F18840C91CC1F58461090501EBD021E5
:10473000400570470E4890ED001A21EE001AF7EE82
:10474000001A0B4890ED002A71EEC21A064890ED4F
:10475000002A0648D0ED002A40EE822A01EEA21A75
:10476000024880ED001A70471404FF1FC40EFF1F9B
:104770001004FF1FF446400D40EAC120490006D254
:1047800000F014F8004248BF6FF00040604700F0AE
:104790000DF84FF0004188428CBF08464042604708
:1047A000400D40EAC120490080F00D8040F00040FB
:1047B000490DA1F58061491C05D4D1F11F0154BFF9
:1047C000C840C01770474FF00000704738B5002050
:1047D0000400E4B2082C20DA0021B4F15000C0B289
:1047E00000F01CF80021002000F018F80021102033
:1047F00000F014F800200500EDB2802D0BDA012145
:10480000E4B2EDB2DFF8280410EBC500205C00F044
:1048100005F86D1CF0E7641CDBE731BD10B4C9B2CC
:10482000002904D0DFF80C3401241C6003E0DFF819
:10483000043400241C6000231A00D2B2082A15DABE
:10484000DFF8F43300241C60030604D5DFF8EC33F2
:1048500001241C6003E0DFF8E43300241C60DFF86F
:10486000D83301241C604000521CE6E7DFF8C43353
:1048700001241C6010BC704780B500218D20FFF71B
:10488000CDFF00211420FFF7C9FF0021AF20FFF763
:10489000C5FF01BD38B500200400E4B2082C10DAD1
:1048A00000200500EDB2802D09DAE4B2EDB2DFF8A8
:1048B000800310EBC500002121546D1CF2E7641C3D
:1048C000EBE7FFF783FF31BDF0B40025C0B28028CD
:1048D00002DAC9B2402900DB30E0C9B2082691FBF8
:1048E000F6F6D6F107063300C9B2082691FBF6F7B3
:1048F00007FB16173C000126D4F10707BE40350020
:10490000D2B2002A0DD0DBB2C0B2C94E16EBC0063F
:10491000DBB2C0B2C64F17EBC007DF5D2F439F5518
:104920000CE0DBB2C0B2C24E16EBC006DBB2C0B2C6
:10493000BF4F17EBC007DF5DAF439F55F0BC70471B
:104940002DE9F84F05000E00170098460A9C8DF8D7
:104950000060203F002082465FFA8AFA5FFA88F8FA
:10496000C2454ED25FFA88F8B8F10C0F0AD15FFA4F
:104970008AFAFFB20C20B24900FB07101AF80000B7
:10498000814608E05FFA8AFAFFB2AE4810EB0710E2
:104990001AF800008146002083465FFA8BFBBBF1CA
:1049A000080F2BDA5FEA096008D52200D2B2310085
:1049B000C9B22800C0B2FFF787FF0CE0E4B2002CB8
:1049C00001D1012200E00022D2B23100C9B2280098
:1049D000C0B2FFF779FF5FEA4909761CF6B29DF88D
:1049E0000000301A5FFA88F8404504D19DF80000B5
:1049F00006006D1C02E01BF1010BCEE71AF1010A63
:104A0000AAE7BDE8F18F020001200B00591EDBB2BE
:104A1000002B02D0D2B25043F7E770472DE9F84F90
:104A200005008B4616001F000A9C5FF0000A00205C
:104A300080465FFA88F8FFB2B8454ED2B7EB08005F
:104A4000411EC9B20A20FFF7DEFFB6FBF0F00A21D3
:104A5000B0FBF1F201FB120081465FFA8AFABAF16B
:104A6000000F21D15FFA88F8FFB2781E80451BDA6B
:104A70005FFA89F9B9F1000F14D1012000902300E9
:104A8000DBB220225946C9B2E4B2022094FBF0F016
:104A90005FFA88F808FB00F050FA85F0C0B2FFF723
:104AA0004FFF17E001208246012000902300DBB277
:104AB00019F13002D2B25946C9B2E4B2022094FBD5
:104AC000F0F05FFA88F808FB00F050FA85F0C0B209
:104AD000FFF736FF18F10108ABE7BDE8F18F70B5BD
:104AE00082B004000D001600307800281AD0E4B21D
:104AF0007B2C02DB002004001035EDB23B2D04DBE3
:104B0000002004000500FFF7C5FE012000900C23E3
:104B100032782900C9B22000C0B2FFF711FF083473
:104B2000761CE1E773BD80B501220121482000F029
:104B30008DF801220121492000F088F8012201218D
:104B40004A2000F083F8012201214B2000F07EF87A
:104B50003D48002101606420FDF76DFE3A480121C7
:104B600001600021AE20FFF759FE0021D520FFF79C
:104B700055FE00215020FFF751FE0021A820FFF72D
:104B80004DFE00213F20FFF749FE0021D320FFF713
:104B900045FE00210020FFF741FE00214020FFF7E5
:104BA0003DFE00218D20FFF739FE00211420FFF784
:104BB00035FE00212020FFF731FE00210220FFF703
:104BC0002DFE0021A120FFF729FE0021C020FFF7C4
:104BD00025FE0021DA20FFF721FE00211220FFF739
:104BE0001DFE00218120FFF719FE0021EF20FFF7B5
:104BF00015FE0021D920FFF711FE0021F120FFF75B
:104C00000DFE0021DB20FFF709FE00213020FFF719
:104C100005FE0021A420FFF701FE0021A620FFF7DA
:104C2000FDFD0021AF20FFF7F9FDFFF733FE01BDC9
:104C3000980FFF1F2C10FE432010FE432410FE434C
:104C4000887F0000987900002810FE4370B50400AA
:104C50000D0016004FF480712000C0B200F08AF8F9
:104C60006DB2002D11D1E4B26011404951F820001D
:104C7000E4B261113D4A52F821104969012214F051
:104C80001F039A409143416136E0E4B26011374915
:104C900051F82000E4B26111344A52F821104969F8
:104CA000012214F01F039A4011434161F6B2002E15
:104CB00011D1E4B260112D4951F8200000680121A2
:104CC00014F01F0291408843E4B26111274A52F860
:104CD0002110086010E0E4B26011244951F820006E
:104CE0000068012114F01F0291400843E4B26111F1
:104CF0001E4A52F82110086070BD10B50400E4B2DD
:104D000060111A4951F82000406914F01F01C84091
:104D1000C00703D47B21164800F025FCE4B26011E3
:104D2000124951F82000012114F01F029140C16086
:104D300010BD10B50400E4B260110C4951F8200018
:104D4000406914F01F01C840C00703D58C210848F2
:104D500000F009FCE4B26011044951F82000006938
:104D600014F01F01C84010F0010010BDEC0BFF1F34
:104D7000648B000010B4294A12684FF40073C0B26B
:104D80004409A3401A43254B1A60C0B24211244B78
:104D900053F82220012310F01F04A340C2F8A030D2
:104DA000C0B210F01F02C0B243111D4C54F82330A2
:104DB00043F8221010BC704710B4184A12684FF420
:104DC0000073C0B24409A3401A43144B1A60C0B226
:104DD0004211134B53F82220012310F01F04A3406B
:104DE000C2F8A03031F4E061C0B210F01F02C0B2CE
:104DF00043110B4C54F8233053F8222012F4E06294
:104E00001143C0B210F01F02C0B24311044C54F859
:104E1000233043F8221010BC704700003880044053
:104E20005C0CFF1F2DE9F84304000D0064B2002C58
:104E300008D0022C2CD018D3042C4FD03BD3052CF7
:104E40005FD071E0DFF81002006850F48060DFF896
:104E5000081208604FF440716620FFF78BFF4FF493
:104E600040716720FFF786FF5EE0DFF8EC01006825
:104E700050F40060DFF8E01108604FF44071432007
:104E8000FFF778FF4FF440714420FFF773FF4BE0CA
:104E9000DFF8C401006850F48050DFF8BC110860EE
:104EA0004FF440716320FFF765FF4FF440716220BB
:104EB000FFF760FF38E0DFF8A001006850F4005011
:104EC000DFF8941108604FF440715020FFF752FF53
:104ED0004FF440715120FFF74DFF25E0DFF87C01D2
:104EE000006850F48060DFF8741108604FF440717E
:104EF0009920FFF73FFF4FF440719820FFF73AFFEA
:104F000012E0DFF85801006850F40060DFF84C113F
:104F100008604FF440718920FFF72CFF4FF4407177
:104F20008820FFF727FFFFE764B2DFF8340150F86D
:104F30002400C07810F0F30064B2DFF8241151F8B7
:104F40002410C87064B2DFF8180150F8240064B26D
:104F5000DFF80C1151F824108978817064B2002CAC
:104F600002D064B2012C07D1DFF8F80000684FF4DA
:104F70007A714843814606E0DFF8EC0000684FF4A0
:104F80007A71484381462801B9FBF0F00600B6B2B9
:104F9000B6F5005F02DB41F6FF700600B9FBF5F0E5
:104FA000B6B2B0EB06100700BFB2202F03DBDC2146
:104FB0002E4800F0D8FA64B2294850F8240000784E
:104FC00010F0E0008046B6B2300A10F01F0050EA40
:104FD000080064B2224951F82410087064B22048D5
:104FE00050F82400467064B21D4850F82400807ABE
:104FF00010F0E000804664B2194850F8240017F021
:105000001F0151EA0801817264B2154850F824006A
:10501000007C50F0880064B2114951F824100874E3
:1050200064B20F4850F82400C07850F00C0064B20D
:105030000B4951F82410C870BDE8F18340B2084A0A
:1050400052F8202012791206F8D540B2044A52F8DC
:105050002020D17170470000348004402880044033
:10506000700CFF1F9813FF1FA013FF1FF48B00008D
:1050700038B504000D00002D03D12221174800F09F
:1050800072FA1748006850F4000015490860154886
:105090000021016064B2200113496A1E425064B2CB
:1050A000114810EB0410C06850F0010064B20E49C2
:1050B00011EB0411C86064B20B4810EB0410806857
:1050C0004008400064B2084911EB0411886064B2E2
:1050D000054810EB04100321816031BD808C000075
:1050E0003C800440007003400071034010B5040090
:1050F0004FF4007094FBF0F101FB1041002903D044
:105100001E210B4800F02FFA0A48046010BD38B584
:1051100004000D00074800680749884203D0302189
:10512000034800F020FA64B2034840F8245031BD2F
:10513000C48C000008ED00E00000FF1FDFF800F065
:10514000290DFF1FDFF800F0850DFF1F80B5FF2040
:10515000FFF7F4FFD64890ED000ABCEEC00A10EE4F
:10516000102A00230021FF20FFF7ECFFD14802683E
:1051700000230421FF20FFF7E5FFCF4890ED000A50
:10518000DFED700A20EE200ABCEEC00A10EE102AF5
:1051900000230821FF20FFF7D5FFC84890ED000A43
:1051A000DFED680A20EE200ABCEEC00A10EE102ADD
:1051B00000230C21FF20FFF7C5FFC14890ED000A36
:1051C000DFED600A20EE200ABCEEC00A10EE102AC5
:1051D00000231021FF20FFF7B5FFBA480268002323
:1051E0001421FF20FFF7AEFFB74890ED000ADFED76
:1051F000550A20EE200ABCEEC00A10EE102A002349
:105200001821FF20FFF79EFFB04890ED000ADFED68
:105210004D0A20EE200ABCEEC00A10EE102A002330
:105220001C21FF20FFF78EFFA948026800232021E0
:10523000FF20FFF787FFA74890ED000ABCEEC00AE9
:1052400010EE102A00232421FF20FFF77BFFA24845
:1052500090ED000ADFED3B0A20EE200ABCEEC00A0A
:1052600010EE102A00232821FF20FFF76BFF9B4838
:1052700090ED000ADFED330A20EE200ABCEEC00AF2
:1052800010EE102A00232C21FF20FFF75BFF94482B
:10529000026800233021FF20FFF754FF9048426846
:1052A00000233421FF20FFF74DFF8D488268002343
:1052B0003821FF20FFF746FF8948C26800233C21C0
:1052C000FF20FFF73FFF874890ED000ADFED1D0A42
:1052D00020EE200ABCEEC00A10EE102A0023402166
:1052E000FF20FFF72FFF804890ED000ADFED150A41
:1052F00020EE200ABCEEC00A10EE102A0023442142
:10530000FF20FFF71FFF7948006800F059FE0200F8
:105310000B004821FF20FFF715FF7548006800F0DB
:105320004FFE02000B004C21FF20FFF70BFF7148DE
:10533000006800F045FE02000B005021FF20FFF73F
:1053400001FF01BD00007A4480B55FF47F2090ED3D
:10535000000AB8EEC00A564880ED000A5548664972
:105360000968016065480068FFF7CCF90022644BCA
:1053700000F032FAFDF76EFB4F49086061480068A3
:10538000FFF7C0F900225E4B00F026FAFDF762FB42
:105390004A4908605C480068FFF7B4F90022584B9E
:1053A00000F01AFAFDF756FB454908604548574991
:1053B0000968016056480068FFF7A4F90022504BC5
:1053C00000F00AFAFDF746FB3F49086051480068C3
:1053D000FFF798F900224A4B00F0FEF9FDF73AFB7F
:1053E0003A4908603A484C49096801604B4890EDD9
:1053F000000AB8EEC00A374880ED000A4848006845
:10540000FFF780F900223E4B00F0E6F9FDF722FBA2
:105410003149086043480068FFF774F90022384BAF
:1054200000F0DAF9FDF716FB2C4908602C483E49DC
:10543000096801602A483D490968416028483C499B
:105440000968816026483B490968C1603A4800689C
:10545000FFF758F900222A4B00F0BEF9FDF7FAFADF
:105460002049086035480068FFF74CF90022244BBA
:1054700000F0B2F9FDF7EEFA1B490860304890EDF4
:10548000000AB8EEC00A194880ED000A2D4890EDD8
:10549000000AB8EEC00A164880ED000A2A4890EDCE
:1054A000000AB8EEC00A134880ED000A01BD0000F2
:1054B0003404FF1F5004FF1F4404FF1F4804FF1F54
:1054C0004C04FF1F5404FF1F5804FF1F5C04FF1F00
:1054D0006404FF1F6804FF1F7004FF1F7404FF1F94
:1054E0008C04FF1F7804FF1F6C04FF1F3804FF1F8C
:1054F0003C04FF1F4004FF1F04F00F0008F00F00E2
:1055000000408F400CF00F0010F00F0014F00F005F
:1055100018F00F001CF00F0020F00F0024F00F0017
:1055200028F00F002CF00F0030F00F0034F00F00C7
:1055300038F00F003CF00F0040F00F0044F00F0077
:1055400048F00F004CF00F0050F00F00BFF34F8FEA
:105550004648006810F4E060454908434349086044
:10556000BFF34F8FFEE738B504000D00002000F0B8
:105570004BFD2A0021003F4800F07EFD002000F096
:1055800060FD4FF47A70FDF756F9F2E738B5040084
:105590000D00210049B20320FFF750FD200032BD6D
:1055A00010B50024042000F079FD042000F0ACFDCB
:1055B000002841D1002000F027FD042000F0A4FDC8
:1055C000012801D101200400002000F03AFD2A4802
:1055D00000F052FD4FF4FA70FDF72DF9E4B2012C02
:1055E000EBD1042000F090FD0028E6D1042000F06B
:1055F0008BFD002806D1002000F023FD6420FDF77C
:105600001AF9F3E7042000F07FFD012806D10020FD
:1056100000F017FD3220FDF70EF9F3E7174800F010
:105620002BFDFAF7F9FE6420FDF705F90020FFF7DE
:1056300085FDFFF78BFFC0E710BD10B5104804686B
:10564000012000F0E1FC012000F0FBFCE4B20F209F
:105650000C4900FB0412E4B221000B4800F00CFDE1
:105660004FF47A70FDF7E7F8EDE700000CED00E08D
:105670000400FA05688D0000388E00009C8D000043
:1056800004ED00E0D404FF1F048D000030B4436833
:1056900003F0004201211B031B0B436004BF03689E
:1056A000002B08D10DE00368DD0F45EA4404446097
:1056B0005B000360491E4468E302F4D523031B0B1F
:1056C000436043681A434260084630BC70474268F2
:1056D000C2F30A5240F2FF739A4209D141680903AA
:1056E00004BF0068002801D10120704702207047E4
:1056F00043685B0004BF0368002B25D040F23343AE
:105700009A1A521A012A1FDB352A06DB416801F07A
:10571000004141600021016013E0012102F01F03FC
:105720009940491E920607D5426811404A4042609E
:1057300002681143002202E0026811404A40026000
:1057400011B14FF0FF3070470020704790420CD1EC
:1057500041EA030C50EA4C0C07D0994205D14FF4B2
:10576000001C1CEB410F38BF89427047014800F014
:10577000E3BC00009814FF1F4FF4001C1CEB410F0A
:1057800094BF1CEB430F09E041EA030C50EA4C0CB8
:1057900052EA0C0C03D28B4208BF8242704714BFFE
:1057A00099429042704700004FF4001C1CEB410FDF
:1057B00094BF1CEB430F09E041EA030C50EA4C0C88
:1057C00052EA0C0C03D2994208BF9042704714BFB2
:1057D0008B42824270470000F0B540F2FF7581EACB
:1057E000030C0CF0004C15EA11541DBF15EA1357B9
:1057F000AC42AF42E5E0BC41C1F31301C3F3130374
:10580000801A994143F4801304D2641E4000494138
:1058100080185941C90241EA5051B1FBF3F603FB2C
:105820001611A2FB0675D7EBC020A94102D2761E45
:1058300080185941C90241EA5051B1FBF3FE03FB04
:105840001E11A2FB0E75D7EBC020A94103D2AEF109
:10585000010E80185941890241EA9051760546EAC5
:105860008E2EB1FBF3F603FB1611A2FB0675D7EBE8
:105870008020A94102D2761E80185941C90241EA0E
:1058800050514EEA060EB1FBF3F603FB1611A2FBD4
:105890000675D7EBC020A94102D2761E8018594167
:1058A000C90241EA5051B1FBF3F703FB1711A2FB08
:1058B0000735D3EBC020A94167F100070CBF0042B8
:1058C00047F0010766F3D5274FEA1E31B80814F5F3
:1058D000806412DDBD0775F1004250EB0E5051EBB4
:1058E000045111F5801F5CBF41EA0C01F0BD4CF082
:1058F0007F6141F0E0410020F0BDBD076D0840EA46
:105900000E5041F48011D4F10104B4F120060ADAFA
:10591000C4F120060200E04001FA06F3E14018431A
:10592000B24015430EE0342C13DCC6F1200445EAE6
:1059300040056D0820FA06F2154321FA06F0A14051
:105940000D43002175F1004250F1000051EB0C01B4
:10595000F0BD00205FEA0C01F0BDCFB992185B41A9
:10596000B3FA83F704BFB2FA82F6BF190B3FB7F15F
:1059700020062FBF02FA06F3BB40C7F1200622FA29
:1059800006F638BF3343BA401CB1E419641E33E74E
:105990007F4231F00041B1FA81F404BFB0FA80F6E1
:1059A000A4190B3CB4F120062FBF00FA06F1A14068
:1059B000C4F1200620FA06F638BF3143A0403C1B54
:1059C0001AE7AC421ABF05EA1357AF4212E050EA99
:1059D00041061CBF52EA4306BFE750EA4107304682
:1059E00061461CBF41EA0551F0BD52EA430C08BFB5
:1059F000C143F0BD00204FF4001616EB410F98BFD5
:105A000016EB430F08BF16EB410F24BFC14305E05F
:105A100016EB430F0CBF61464CEA0551F0BD000088
:105A200080B52DED028B41EC180B53EC182B1A4866
:105A30001A49FDF7D9FC1A4A1A4BFDF7A7FD53EC9A
:105A4000182BFDF7D1FC184A184BFDF79FFD53ECBE
:105A5000182BFDF7C9FC164A164BFDF797FD53ECC2
:105A6000182BFDF7C1FC144A144BFDF78FFD53ECC6
:105A7000182BFDF7B9FC124A124BFDF787FD53ECCA
:105A8000182BFDF7B1FC104A104BBDEC028BBDE8A2
:105A90000050FDF77BBD0000F7DE29BFD8F8C23FFC
:105AA000F4B3FECC1A99C33F62CB68D96F46C73FA7
:105AB000C6C912DAC471CC3F4AE98A942449D23F5C
:105AC000F75F97999999D93FBC5555555555E53F7D
:105AD0002DE9704C04462DED088BD4E9000143EC10
:105AE000182B00F054F9064651EC180B00F04FF952
:105AF0000E9D310006D500284AD4022805D184ED38
:105B0000008B40E1022EF8D121E050B9D4E9000128
:105B10000022334BFFF71AFE0FD084ED008B0020DC
:105B200031E1012815D1D4E9000100222D4BFFF706
:105B30000DFE18BF84ED008B50D1FFF717FE212119
:105B400001604FF0FF306FF00041C4E90001022016
:105B500019E17EB984ED008B2946204600F0EEFA6B
:105B6000040018BF012C40F00D81FFF7FFFD22213A
:105B7000016007E1D4E900010022194BFFF7E6FDBF
:105B80000FD151EC180BFDF72FFCC4E9000125E003
:105B900094ED009B144B51EC190B0022FFF704FE0F
:105BA0000BD251EC180B0023FDF71EFCC4E90001D9
:105BB000BDEC088B0020BDE8708C01220B4BFFF779
:105BC000DBFD15D851EC180B0022054BFDF70CFC42
:105BD000C4E90001FFF7CAFD222101600120D2E0E3
:105BE0000000F07F0000F0FF00C89CC000C89C408F
:105BF000384A394BFDF7F8FB00220023FFF7D4FDAC
:105C000034BF9FED360B9FED370B53EC102BFDF798
:105C1000BDFCFEF7AFFD0646FEF774FD41EC1A0B26
:105C20004FF07842314BFDF7DFFB02460B4651EC5B
:105C3000190BFCF74FFE82468B4653EC1A2B2C486F
:105C40002C49FDF7D1FB02460B4650465946FCF75E
:105C500041FE6FF00102284BFFF78EFD41EC190B5E
:105C600005D80022254BFFF79FFDC0F07D8053EC47
:105C7000192BFDF7B9FB41EC1A0B214A214BFDF71B
:105C8000B3FB214A214BFDF781FC53EC1A2BFDF7A6
:105C9000ABFB1F4A1F4B41EC1B0B51EC1A0BFDF7E2
:105CA000A3FB1D4A1D4BFDF771FC53EC1A2BFDF7AE
:105CB0009BFB1B4B0022FDF769FC53EC192BFDF7F6
:105CC00093FB41EC190B9FED01AB2BE000000000B2
:105CD0000000F03FFE822B654715F73F00000000F3
:105CE0000000E0BF000000000000E03F422EE63F61
:105CF000F2E4D5BCE7E84B3EFFFF8FBC0000903CD0
:105D0000112E5781A03F503F5843128C8F71BC3FDA
:105D10004BE8A541B752013F0BBDF3DAE8708C3F69
:105D20000000E03F51EC1B0B53EC192BFDF72EFC50
:105D300053EC1A2BFDF72AFC82468B4651EC1B0BC9
:105D400053EC192BFCF7C6FD53EC1A2BFDF71EFC88
:105D500002460B4650465946FFF73EFD53EC182BC2
:105D6000FDF742FB41EC180B84ED008BA91920468E
:105D700000F0E4F9040018BF012C03D1FFF7F6FC92
:105D8000222101602046BDEC088BBDE8708C03B475
:105D9000DDE90023C3F30A5140F2FF72914206D0BD
:105DA00001B10CE0190350EA113006D00BE01903E1
:105DB00050EA113014BF0220012002B070474FF0AA
:105DC000FF3002B070476FF0010002B07047000072
:105DD000D0B514462DED048B534A544BFFF7CCFC41
:105DE00041EC180B1DD89FED529B53EC182B51EC36
:105DF000190BFDF7F9FA00224F4BFDF7C7FB0646DA
:105E00000F4653EC182B51EC190BFDF7BFFB024664
:105E10000B4630463946FFF7DFFC41EC180B44F0E7
:105E2000010451EC180B0022444BFFF7BDFC05D3D5
:105E300001224FF07953FFF79FFC51D853EC182BF8
:105E4000FDF7D2FA41EC190B53EC182BFDF7CCFA05
:105E500006460F4653EC192B39483A49FDF7C4FA68
:105E6000394A3A4BFDF792FB53EC192BFDF7BCFA7C
:105E7000374A384BFDF78AFB32463B46FDF7B4FA0A
:105E800053EC182BFDF782FB06460F4653EC192BFB
